{"project/contracts/Gallery.sol":{"Gallery":{"abi":[{"inputs":[{"internalType":"address","name":"_usdc","type":"address"}],"stateMutability":"nonpayable","type":"constructor"},{"inputs":[],"name":"FailedCall","type":"error"},{"inputs":[{"internalType":"uint256","name":"balance","type":"uint256"},{"internalType":"uint256","name":"needed","type":"uint256"}],"name":"InsufficientBalance","type":"error"},{"inputs":[{"internalType":"address","name":"owner","type":"address"}],"name":"OwnableInvalidOwner","type":"error"},{"inputs":[{"internalType":"address","name":"account","type":"address"}],"name":"OwnableUnauthorizedAccount","type":"error"},{"inputs":[],"name":"ReentrancyGuardReentrantCall","type":"error"},{"inputs":[{"internalType":"address","name":"token","type":"address"}],"name":"SafeERC20FailedOperation","type":"error"},{"anonymous":false,"inputs":[{"indexed":true,"internalType":"address","name":"recipient","type":"address"},{"indexed":false,"internalType":"uint256","name":"bps","type":"uint256"}],"name":"FeeUpdated","type":"event"},{"anonymous":false,"inputs":[{"indexed":true,"internalType":"address","name":"previousOwner","type":"address"},{"indexed":true,"internalType":"address","name":"newOwner","type":"address"}],"name":"OwnershipTransferred","type":"event"},{"anonymous":false,"inputs":[{"indexed":true,"internalType":"address","name":"artistContract","type":"address"},{"indexed":true,"internalType":"address","name":"to","type":"address"},{"indexed":false,"internalType":"uint256","name":"amount","type":"uint256"},{"indexed":false,"internalType":"string","name":"paymentId","type":"string"}],"name":"Processed","type":"event"},{"anonymous":false,"inputs":[{"indexed":true,"internalType":"address","name":"relayer","type":"address"}],"name":"RelayerSet","type":"event"},{"anonymous":false,"inputs":[{"indexed":true,"internalType":"address","name":"to","type":"address"},{"indexed":false,"internalType":"uint256","name":"amount","type":"uint256"}],"name":"WithdrawnETH","type":"event"},{"anonymous":false,"inputs":[{"indexed":true,"internalType":"address","name":"to","type":"address"},{"indexed":false,"internalType":"uint256","name":"amount","type":"uint256"}],"name":"WithdrawnUSDC","type":"event"},{"inputs":[],"name":"MINT_PRICE","outputs":[{"internalType":"uint256","name":"","type":"uint256"}],"stateMutability":"view","type":"function"},{"inputs":[],"name":"PAYEE1_AMOUNT","outputs":[{"internalType":"uint256","name":"","type":"uint256"}],"stateMutability":"view","type":"function"},{"inputs":[],"name":"PAYEE2_AMOUNT","outputs":[{"internalType":"uint256","name":"","type":"uint256"}],"stateMutability":"view","type":"function"},{"inputs":[],"name":"feeBps","outputs":[{"internalType":"uint256","name":"","type":"uint256"}],"stateMutability":"view","type":"function"},{"inputs":[],"name":"feeRecipient","outputs":[{"internalType":"address","name":"","type":"address"}],"stateMutability":"view","type":"function"},{"inputs":[],"name":"owner","outputs":[{"internalType":"address","name":"","type":"address"}],"stateMutability":"view","type":"function"},{"inputs":[{"internalType":"address","name":"artistContract","type":"address"},{"internalType":"address","name":"to","type":"address"},{"internalType":"string","name":"paymentId","type":"string"}],"name":"payAndMint","outputs":[],"stateMutability":"payable","type":"function"},{"inputs":[{"internalType":"address","name":"","type":"address"}],"name":"pendingWithdrawals","outputs":[{"internalType":"uint256","name":"","type":"uint256"}],"stateMutability":"view","type":"function"},{"inputs":[{"internalType":"address","name":"artistContract","type":"address"},{"internalType":"address","name":"to","type":"address"},{"internalType":"uint256","name":"amount","type":"uint256"},{"internalType":"string","name":"paymentId","type":"string"}],"name":"processPayment","outputs":[],"stateMutability":"nonpayable","type":"function"},{"inputs":[{"internalType":"string","name":"","type":"string"}],"name":"processedPayment","outputs":[{"internalType":"bool","name":"","type":"bool"}],"stateMutability":"view","type":"function"},{"inputs":[],"name":"relayer","outputs":[{"internalType":"address","name":"","type":"address"}],"stateMutability":"view","type":"function"},{"inputs":[],"name":"renounceOwnership","outputs":[],"stateMutability":"nonpayable","type":"function"},{"inputs":[{"internalType":"address","name":"_recipient","type":"address"},{"internalType":"uint256","name":"_bps","type":"uint256"}],"name":"setFee","outputs":[],"stateMutability":"nonpayable","type":"function"},{"inputs":[{"internalType":"address","name":"_r","type":"address"}],"name":"setRelayer","outputs":[],"stateMutability":"nonpayable","type":"function"},{"inputs":[{"internalType":"address","name":"newOwner","type":"address"}],"name":"transferOwnership","outputs":[],"stateMutability":"nonpayable","type":"function"},{"inputs":[],"name":"usdc","outputs":[{"internalType":"contract IERC20","name":"","type":"address"}],"stateMutability":"view","type":"function"},{"inputs":[],"name":"withdrawPending","outputs":[],"stateMutability":"nonpayable","type":"function"},{"inputs":[{"internalType":"address","name":"to","type":"address"},{"internalType":"uint256","name":"amount","type":"uint256"}],"name":"withdrawUSDC","outputs":[],"stateMutability":"nonpayable","type":"function"}],"evm":{"bytecode":{"linkReferences":{},"object":"60a060405234801561000f575f80fd5b506040516112fa3803806112fa83398101604081905261002e916100d5565b338061005357604051631e4fbdf760e01b81525f600482015260240160405180910390fd5b61005c81610086565b50600180556001600160a01b0316608052600480546001600160a01b03191690555f600555610102565b5f80546001600160a01b038381166001600160a01b0319831681178455604051919092169283917f8be0079c531659141344cd1fd0a4f28419497f9722a3daafe3b4186f6b6457e09190a35050565b5f602082840312156100e5575f80fd5b81516001600160a01b03811681146100fb575f80fd5b9392505050565b6080516111bd61013d5f395f818161015b015281816103de0152818161049e01528181610889015281816109d20152610a1501526111bd5ff3fe608060405260043610610105575f3560e01c8063725a829411610092578063bbe96b0011610062578063bbe96b00146102cd578063c002d23d146102ec578063e55156b514610306578063f2fde38b14610325578063f3f4370314610344575f80fd5b8063725a82941461026b5780637edbceb11461027e5780638406c079146102925780638da5cb5b146102b1575f80fd5b806346904840116100d857806346904840146101b65780634af044aa146101d5578063623e752b146101ee5780636548e9bc14610238578063715018a614610257575f80fd5b80631ec7605c1461010957806324a9d853146101355780633e413bee1461014a57806344471fd914610195575b5f80fd5b348015610114575f80fd5b50610122659a9d359ca00081565b6040519081526020015b60405180910390f35b348015610140575f80fd5b5061012260055481565b348015610155575f80fd5b5061017d7f000000000000000000000000000000000000000000000000000000000000000081565b6040516001600160a01b03909116815260200161012c565b3480156101a0575f80fd5b506101b46101af366004610e6a565b61036f565b005b3480156101c1575f80fd5b5060045461017d906001600160a01b031681565b3480156101e0575f80fd5b5061012265763bfbd2200081565b3480156101f9575f80fd5b50610228610208366004610ea6565b805160208183018101805160068252928201919093012091525460ff1681565b604051901515815260200161012c565b348015610243575f80fd5b506101b4610252366004610f51565b610515565b348015610262575f80fd5b506101b46105ab565b6101b4610279366004610fb6565b6105be565b348015610289575f80fd5b506101b4610708565b34801561029d575f80fd5b5060035461017d906001600160a01b031681565b3480156102bc575f80fd5b505f546001600160a01b031661017d565b3480156102d8575f80fd5b506101b46102e7366004611013565b6107af565b3480156102f7575f80fd5b50610122660110d9316ec00081565b348015610311575f80fd5b506101b4610320366004610e6a565b610afa565b348015610330575f80fd5b506101b461033f366004610f51565b610bf6565b34801561034f575f80fd5b5061012261035e366004610f51565b60026020525f908152604090205481565b610377610c33565b61037f610c5f565b6001600160a01b0382166103c75760405162461bcd60e51b815260206004820152600a602482015269696e76616c696420746f60b01b60448201526064015b60405180910390fd5b6040516370a0823160e01b815230600482015281907f00000000000000000000000000000000000000000000000000000000000000006001600160a01b0316906370a0823190602401602060405180830381865afa15801561042b573d5f803e3d5ffd5b505050506040513d601f19601f8201168201806040525081019061044f919061107d565b10156104915760405162461bcd60e51b8152602060048201526011602482015270496e73756666696369656e74205553444360781b60448201526064016103be565b6104c56001600160a01b037f0000000000000000000000000000000000000000000000000000000000000000168383610c89565b816001600160a01b03167f9064b460fd73b0517caa24227d99918304810044cab6170024069608dc4ca0e68260405161050091815260200190565b60405180910390a261051160018055565b5050565b61051d610c33565b6001600160a01b0381166105625760405162461bcd60e51b815260206004820152600c60248201526b3d32b937903932b630bcb2b960a11b60448201526064016103be565b600380546001600160a01b0319166001600160a01b0383169081179091556040517fb7041340e0c2a075059bf0488a71c767724be15dae8e737f8460007325e8d857905f90a250565b6105b3610c33565b6105bc5f610ce0565b565b6105c6610c5f565b660110d9316ec000341461060d5760405162461bcd60e51b815260206004820152600e60248201526d0a0e4d2c6ca40dad2e6dac2e8c6d60931b60448201526064016103be565b60405163330806f160e11b81526001600160a01b038516906366100de290659a9d359ca00090610645908790879087906004016110bc565b5f604051808303818588803b15801561065c575f80fd5b505af19350505050801561066e575060015b6106aa576001600160a01b0384165f9081526002602052604081208054659a9d359ca000929061069f9084906110fd565b909155506106aa9050565b826001600160a01b0316846001600160a01b03167f115856d49f19e7dfe24b66c93020ec47cdbe5ff83a8e55616820bcad6a0538f13485856040516106f193929190611116565b60405180910390a361070260018055565b50505050565b610710610c5f565b335f90815260026020526040902054806107575760405162461bcd60e51b81526020600482015260086024820152676e6f2066756e647360c01b60448201526064016103be565b335f818152600260205260408120556107709082610d2f565b60405181815233907f5817fe91d2748c33f168d8a78037fc073adaf6ec8e3613a758d44a2cfae4563d9060200160405180910390a2506105bc60018055565b6003546001600160a01b031633146107f85760405162461bcd60e51b815260206004820152600c60248201526b27b7363c903932b630bcb2b960a11b60448201526064016103be565b610800610c5f565b6006828260405161081292919061112f565b9081526040519081900360200190205460ff16156108725760405162461bcd60e51b815260206004820152601960248201527f5061796d656e7420616c72656164792070726f6365737365640000000000000060448201526064016103be565b6040516370a0823160e01b815230600482015283907f00000000000000000000000000000000000000000000000000000000000000006001600160a01b0316906370a0823190602401602060405180830381865afa1580156108d6573d5f803e3d5ffd5b505050506040513d601f19601f820116820180604052508101906108fa919061107d565b10156109485760405162461bcd60e51b815260206004820152601c60248201527f496e73756666696369656e74205553444320696e2067616c6c6572790000000060448201526064016103be565b60016006838360405161095c92919061112f565b908152604051908190036020019020805491151560ff199092169190911790556005545f901580159061099957506004546001600160a01b031615155b156109fb57612710600554856109af919061113e565b6109b99190611155565b905080156109fb576004546109fb906001600160a01b037f00000000000000000000000000000000000000000000000000000000000000008116911683610c89565b5f610a068286611174565b9050610a3c6001600160a01b037f0000000000000000000000000000000000000000000000000000000000000000168883610c89565b604051634ed6a5f760e01b81526001600160a01b03881690634ed6a5f790610a6c908990889088906004016110bc565b5f604051808303815f87803b158015610a83575f80fd5b505af1158015610a95573d5f803e3d5ffd5b50505050856001600160a01b0316876001600160a01b03167f115856d49f19e7dfe24b66c93020ec47cdbe5ff83a8e55616820bcad6a0538f1878787604051610ae093929190611116565b60405180910390a35050610af360018055565b5050505050565b610b02610c33565b612710811115610b435760405162461bcd60e51b815260206004820152600c60248201526b62707320746f206c6172676560a01b60448201526064016103be565b6001600160a01b038216151580610b58575080155b610b9c5760405162461bcd60e51b81526020600482015260156024820152741a5b9d985b1a5908199959481c9958da5c1a595b9d605a1b60448201526064016103be565b600480546001600160a01b0319166001600160a01b03841690811790915560058290556040518281527f6f0eaf2c2f89fb4cfe96a1dee5e764d60b52c7f48aaa590f0850e308aa1b953a9060200160405180910390a25050565b610bfe610c33565b6001600160a01b038116610c2757604051631e4fbdf760e01b81525f60048201526024016103be565b610c3081610ce0565b50565b5f546001600160a01b031633146105bc5760405163118cdaa760e01b81523360048201526024016103be565b600260015403610c8257604051633ee5aeb560e01b815260040160405180910390fd5b6002600155565b604080516001600160a01b038416602482015260448082018490528251808303909101815260649091019091526020810180516001600160e01b031663a9059cbb60e01b179052610cdb908490610dbb565b505050565b5f80546001600160a01b038381166001600160a01b0319831681178455604051919092169283917f8be0079c531659141344cd1fd0a4f28419497f9722a3daafe3b4186f6b6457e09190a35050565b80471015610d595760405163cf47918160e01b8152476004820152602481018290526044016103be565b5f80836001600160a01b0316836040515f6040518083038185875af1925050503d805f8114610da3576040519150601f19603f3d011682016040523d82523d5f602084013e610da8565b606091505b5091509150816107025761070281610e27565b5f8060205f8451602086015f885af180610dda576040513d5f823e3d81fd5b50505f513d91508115610df1578060011415610dfe565b6001600160a01b0384163b155b1561070257604051635274afe760e01b81526001600160a01b03851660048201526024016103be565b805115610e3657805160208201fd5b60405163d6bda27560e01b815260040160405180910390fd5b80356001600160a01b0381168114610e65575f80fd5b919050565b5f8060408385031215610e7b575f80fd5b610e8483610e4f565b946020939093013593505050565b634e487b7160e01b5f52604160045260245ffd5b5f60208284031215610eb6575f80fd5b813567ffffffffffffffff80821115610ecd575f80fd5b818401915084601f830112610ee0575f80fd5b813581811115610ef257610ef2610e92565b604051601f8201601f19908116603f01168101908382118183101715610f1a57610f1a610e92565b81604052828152876020848701011115610f32575f80fd5b826020860160208301375f928101602001929092525095945050505050565b5f60208284031215610f61575f80fd5b610f6a82610e4f565b9392505050565b5f8083601f840112610f81575f80fd5b50813567ffffffffffffffff811115610f98575f80fd5b602083019150836020828501011115610faf575f80fd5b9250929050565b5f805f8060608587031215610fc9575f80fd5b610fd285610e4f565b9350610fe060208601610e4f565b9250604085013567ffffffffffffffff811115610ffb575f80fd5b61100787828801610f71565b95989497509550505050565b5f805f805f60808688031215611027575f80fd5b61103086610e4f565b945061103e60208701610e4f565b935060408601359250606086013567ffffffffffffffff811115611060575f80fd5b61106c88828901610f71565b969995985093965092949392505050565b5f6020828403121561108d575f80fd5b5051919050565b81835281816020850137505f828201602090810191909152601f909101601f19169091010190565b6001600160a01b03841681526040602082018190525f906110e09083018486611094565b95945050505050565b634e487b7160e01b5f52601160045260245ffd5b80820180821115611110576111106110e9565b92915050565b838152604060208201525f6110e0604083018486611094565b818382375f9101908152919050565b8082028115828204841417611110576111106110e9565b5f8261116f57634e487b7160e01b5f52601260045260245ffd5b500490565b81810381811115611110576111106110e956fea2646970667358221220669c61c3bf58744f53cc72a8c1e7138cade18d384ee493bf6649f4476e1d07e364736f6c63430008140033","opcodes":"PUSH1 0xA0 PUSH1 0x40 MSTORE CALLVALUE DUP1 ISZERO PUSH2 0xF JUMPI PUSH0 DUP1 REVERT JUMPDEST POP PUSH1 0x40 MLOAD PUSH2 0x12FA CODESIZE SUB DUP1 PUSH2 0x12FA DUP4 CODECOPY DUP2 ADD PUSH1 0x40 DUP2 SWAP1 MSTORE PUSH2 0x2E SWAP2 PUSH2 0xD5 JUMP JUMPDEST CALLER DUP1 PUSH2 0x53 JUMPI PUSH1 0x40 MLOAD PUSH4 0x1E4FBDF7 PUSH1 0xE0 SHL DUP2 MSTORE PUSH0 PUSH1 0x4 DUP3 ADD MSTORE PUSH1 0x24 ADD PUSH1 0x40 MLOAD DUP1 SWAP2 SUB SWAP1 REVERT JUMPDEST PUSH2 0x5C DUP2 PUSH2 0x86 JUMP JUMPDEST POP PUSH1 0x1 DUP1 SSTORE PUSH1 0x1 PUSH1 0x1 PUSH1 0xA0 SHL SUB AND PUSH1 0x80 MSTORE PUSH1 0x4 DUP1 SLOAD PUSH1 0x1 PUSH1 0x1 PUSH1 0xA0 SHL SUB NOT AND SWAP1 SSTORE PUSH0 PUSH1 0x5 SSTORE PUSH2 0x102 JUMP JUMPDEST PUSH0 DUP1 SLOAD PUSH1 0x1 PUSH1 0x1 PUSH1 0xA0 SHL SUB DUP4 DUP2 AND PUSH1 0x1 PUSH1 0x1 PUSH1 0xA0 SHL SUB NOT DUP4 AND DUP2 OR DUP5 SSTORE PUSH1 0x40 MLOAD SWAP2 SWAP1 SWAP3 AND SWAP3 DUP4 SWAP2 PUSH32 0x8BE0079C531659141344CD1FD0A4F28419497F9722A3DAAFE3B4186F6B6457E0 SWAP2 SWAP1 LOG3 POP POP JUMP JUMPDEST PUSH0 PUSH1 0x20 DUP3 DUP5 SUB SLT ISZERO PUSH2 0xE5 JUMPI PUSH0 DUP1 REVERT JUMPDEST DUP2 MLOAD PUSH1 0x1 PUSH1 0x1 PUSH1 0xA0 SHL SUB DUP2 AND DUP2 EQ PUSH2 0xFB JUMPI PUSH0 DUP1 REVERT JUMPDEST SWAP4 SWAP3 POP POP POP JUMP JUMPDEST PUSH1 0x80 MLOAD PUSH2 0x11BD PUSH2 0x13D PUSH0 CODECOPY PUSH0 DUP2 DUP2 PUSH2 0x15B ADD MSTORE DUP2 DUP2 PUSH2 0x3DE ADD MSTORE DUP2 DUP2 PUSH2 0x49E ADD MSTORE DUP2 DUP2 PUSH2 0x889 ADD MSTORE DUP2 DUP2 PUSH2 0x9D2 ADD MSTORE PUSH2 0xA15 ADD MSTORE PUSH2 0x11BD PUSH0 RETURN INVALID PUSH1 0x80 PUSH1 0x40 MSTORE PUSH1 0x4 CALLDATASIZE LT PUSH2 0x105 JUMPI PUSH0 CALLDATALOAD PUSH1 0xE0 SHR DUP1 PUSH4 0x725A8294 GT PUSH2 0x92 JUMPI DUP1 PUSH4 0xBBE96B00 GT PUSH2 0x62 JUMPI DUP1 PUSH4 0xBBE96B00 EQ PUSH2 0x2CD JUMPI DUP1 PUSH4 0xC002D23D EQ PUSH2 0x2EC JUMPI DUP1 PUSH4 0xE55156B5 EQ PUSH2 0x306 JUMPI DUP1 PUSH4 0xF2FDE38B EQ PUSH2 0x325 JUMPI DUP1 PUSH4 0xF3F43703 EQ PUSH2 0x344 JUMPI PUSH0 DUP1 REVERT JUMPDEST DUP1 PUSH4 0x725A8294 EQ PUSH2 0x26B JUMPI DUP1 PUSH4 0x7EDBCEB1 EQ PUSH2 0x27E JUMPI DUP1 PUSH4 0x8406C079 EQ PUSH2 0x292 JUMPI DUP1 PUSH4 0x8DA5CB5B EQ PUSH2 0x2B1 JUMPI PUSH0 DUP1 REVERT JUMPDEST DUP1 PUSH4 0x46904840 GT PUSH2 0xD8 JUMPI DUP1 PUSH4 0x46904840 EQ PUSH2 0x1B6 JUMPI DUP1 PUSH4 0x4AF044AA EQ PUSH2 0x1D5 JUMPI DUP1 PUSH4 0x623E752B EQ PUSH2 0x1EE JUMPI DUP1 PUSH4 0x6548E9BC EQ PUSH2 0x238 JUMPI DUP1 PUSH4 0x715018A6 EQ PUSH2 0x257 JUMPI PUSH0 DUP1 REVERT JUMPDEST DUP1 PUSH4 0x1EC7605C EQ PUSH2 0x109 JUMPI DUP1 PUSH4 0x24A9D853 EQ PUSH2 0x135 JUMPI DUP1 PUSH4 0x3E413BEE EQ PUSH2 0x14A JUMPI DUP1 PUSH4 0x44471FD9 EQ PUSH2 0x195 JUMPI JUMPDEST PUSH0 DUP1 REVERT JUMPDEST CALLVALUE DUP1 ISZERO PUSH2 0x114 JUMPI PUSH0 DUP1 REVERT JUMPDEST POP PUSH2 0x122 PUSH6 0x9A9D359CA000 DUP2 JUMP JUMPDEST PUSH1 0x40 MLOAD SWAP1 DUP2 MSTORE PUSH1 0x20 ADD JUMPDEST PUSH1 0x40 MLOAD DUP1 SWAP2 SUB SWAP1 RETURN JUMPDEST CALLVALUE DUP1 ISZERO PUSH2 0x140 JUMPI PUSH0 DUP1 REVERT JUMPDEST POP PUSH2 0x122 PUSH1 0x5 SLOAD DUP2 JUMP JUMPDEST CALLVALUE DUP1 ISZERO PUSH2 0x155 JUMPI PUSH0 DUP1 REVERT JUMPDEST POP PUSH2 0x17D PUSH32 0x0 DUP2 JUMP JUMPDEST PUSH1 0x40 MLOAD PUSH1 0x1 PUSH1 0x1 PUSH1 0xA0 SHL SUB SWAP1 SWAP2 AND DUP2 MSTORE PUSH1 0x20 ADD PUSH2 0x12C JUMP JUMPDEST CALLVALUE DUP1 ISZERO PUSH2 0x1A0 JUMPI PUSH0 DUP1 REVERT JUMPDEST POP PUSH2 0x1B4 PUSH2 0x1AF CALLDATASIZE PUSH1 0x4 PUSH2 0xE6A JUMP JUMPDEST PUSH2 0x36F JUMP JUMPDEST STOP JUMPDEST CALLVALUE DUP1 ISZERO PUSH2 0x1C1 JUMPI PUSH0 DUP1 REVERT JUMPDEST POP PUSH1 0x4 SLOAD PUSH2 0x17D SWAP1 PUSH1 0x1 PUSH1 0x1 PUSH1 0xA0 SHL SUB AND DUP2 JUMP JUMPDEST CALLVALUE DUP1 ISZERO PUSH2 0x1E0 JUMPI PUSH0 DUP1 REVERT JUMPDEST POP PUSH2 0x122 PUSH6 0x763BFBD22000 DUP2 JUMP JUMPDEST CALLVALUE DUP1 ISZERO PUSH2 0x1F9 JUMPI PUSH0 DUP1 REVERT JUMPDEST POP PUSH2 0x228 PUSH2 0x208 CALLDATASIZE PUSH1 0x4 PUSH2 0xEA6 JUMP JUMPDEST DUP1 MLOAD PUSH1 0x20 DUP2 DUP4 ADD DUP2 ADD DUP1 MLOAD PUSH1 0x6 DUP3 MSTORE SWAP3 DUP3 ADD SWAP2 SWAP1 SWAP4 ADD KECCAK256 SWAP2 MSTORE SLOAD PUSH1 0xFF AND DUP2 JUMP JUMPDEST PUSH1 0x40 MLOAD SWAP1 ISZERO ISZERO DUP2 MSTORE PUSH1 0x20 ADD PUSH2 0x12C JUMP JUMPDEST CALLVALUE DUP1 ISZERO PUSH2 0x243 JUMPI PUSH0 DUP1 REVERT JUMPDEST POP PUSH2 0x1B4 PUSH2 0x252 CALLDATASIZE PUSH1 0x4 PUSH2 0xF51 JUMP JUMPDEST PUSH2 0x515 JUMP JUMPDEST CALLVALUE DUP1 ISZERO PUSH2 0x262 JUMPI PUSH0 DUP1 REVERT JUMPDEST POP PUSH2 0x1B4 PUSH2 0x5AB JUMP JUMPDEST PUSH2 0x1B4 PUSH2 0x279 CALLDATASIZE PUSH1 0x4 PUSH2 0xFB6 JUMP JUMPDEST PUSH2 0x5BE JUMP JUMPDEST CALLVALUE DUP1 ISZERO PUSH2 0x289 JUMPI PUSH0 DUP1 REVERT JUMPDEST POP PUSH2 0x1B4 PUSH2 0x708 JUMP JUMPDEST CALLVALUE DUP1 ISZERO PUSH2 0x29D JUMPI PUSH0 DUP1 REVERT JUMPDEST POP PUSH1 0x3 SLOAD PUSH2 0x17D SWAP1 PUSH1 0x1 PUSH1 0x1 PUSH1 0xA0 SHL SUB AND DUP2 JUMP JUMPDEST CALLVALUE DUP1 ISZERO PUSH2 0x2BC JUMPI PUSH0 DUP1 REVERT JUMPDEST POP PUSH0 SLOAD PUSH1 0x1 PUSH1 0x1 PUSH1 0xA0 SHL SUB AND PUSH2 0x17D JUMP JUMPDEST CALLVALUE DUP1 ISZERO PUSH2 0x2D8 JUMPI PUSH0 DUP1 REVERT JUMPDEST POP PUSH2 0x1B4 PUSH2 0x2E7 CALLDATASIZE PUSH1 0x4 PUSH2 0x1013 JUMP JUMPDEST PUSH2 0x7AF JUMP JUMPDEST CALLVALUE DUP1 ISZERO PUSH2 0x2F7 JUMPI PUSH0 DUP1 REVERT JUMPDEST POP PUSH2 0x122 PUSH7 0x110D9316EC000 DUP2 JUMP JUMPDEST CALLVALUE DUP1 ISZERO PUSH2 0x311 JUMPI PUSH0 DUP1 REVERT JUMPDEST POP PUSH2 0x1B4 PUSH2 0x320 CALLDATASIZE PUSH1 0x4 PUSH2 0xE6A JUMP JUMPDEST PUSH2 0xAFA JUMP JUMPDEST CALLVALUE DUP1 ISZERO PUSH2 0x330 JUMPI PUSH0 DUP1 REVERT JUMPDEST POP PUSH2 0x1B4 PUSH2 0x33F CALLDATASIZE PUSH1 0x4 PUSH2 0xF51 JUMP JUMPDEST PUSH2 0xBF6 JUMP JUMPDEST CALLVALUE DUP1 ISZERO PUSH2 0x34F JUMPI PUSH0 DUP1 REVERT JUMPDEST POP PUSH2 0x122 PUSH2 0x35E CALLDATASIZE PUSH1 0x4 PUSH2 0xF51 JUMP JUMPDEST PUSH1 0x2 PUSH1 0x20 MSTORE PUSH0 SWAP1 DUP2 MSTORE PUSH1 0x40 SWAP1 KECCAK256 SLOAD DUP2 JUMP JUMPDEST PUSH2 0x377 PUSH2 0xC33 JUMP JUMPDEST PUSH2 0x37F PUSH2 0xC5F JUMP JUMPDEST PUSH1 0x1 PUSH1 0x1 PUSH1 0xA0 SHL SUB DUP3 AND PUSH2 0x3C7 JUMPI PUSH1 0x40 MLOAD PUSH3 0x461BCD PUSH1 0xE5 SHL DUP2 MSTORE PUSH1 0x20 PUSH1 0x4 DUP3 ADD MSTORE PUSH1 0xA PUSH1 0x24 DUP3 ADD MSTORE PUSH10 0x696E76616C696420746F PUSH1 0xB0 SHL PUSH1 0x44 DUP3 ADD MSTORE PUSH1 0x64 ADD JUMPDEST PUSH1 0x40 MLOAD DUP1 SWAP2 SUB SWAP1 REVERT JUMPDEST PUSH1 0x40 MLOAD PUSH4 0x70A08231 PUSH1 0xE0 SHL DUP2 MSTORE ADDRESS PUSH1 0x4 DUP3 ADD MSTORE DUP2 SWAP1 PUSH32 0x0 PUSH1 0x1 PUSH1 0x1 PUSH1 0xA0 SHL SUB AND SWAP1 PUSH4 0x70A08231 SWAP1 PUSH1 0x24 ADD PUSH1 0x20 PUSH1 0x40 MLOAD DUP1 DUP4 SUB DUP2 DUP7 GAS STATICCALL ISZERO DUP1 ISZERO PUSH2 0x42B JUMPI RETURNDATASIZE PUSH0 DUP1 RETURNDATACOPY RETURNDATASIZE PUSH0 REVERT JUMPDEST POP POP POP POP PUSH1 0x40 MLOAD RETURNDATASIZE PUSH1 0x1F NOT PUSH1 0x1F DUP3 ADD AND DUP3 ADD DUP1 PUSH1 0x40 MSTORE POP DUP2 ADD SWAP1 PUSH2 0x44F SWAP2 SWAP1 PUSH2 0x107D JUMP JUMPDEST LT ISZERO PUSH2 0x491 JUMPI PUSH1 0x40 MLOAD PUSH3 0x461BCD PUSH1 0xE5 SHL DUP2 MSTORE PUSH1 0x20 PUSH1 0x4 DUP3 ADD MSTORE PUSH1 0x11 PUSH1 0x24 DUP3 ADD MSTORE PUSH17 0x496E73756666696369656E742055534443 PUSH1 0x78 SHL PUSH1 0x44 DUP3 ADD MSTORE PUSH1 0x64 ADD PUSH2 0x3BE JUMP JUMPDEST PUSH2 0x4C5 PUSH1 0x1 PUSH1 0x1 PUSH1 0xA0 SHL SUB PUSH32 0x0 AND DUP4 DUP4 PUSH2 0xC89 JUMP JUMPDEST DUP2 PUSH1 0x1 PUSH1 0x1 PUSH1 0xA0 SHL SUB AND PUSH32 0x9064B460FD73B0517CAA24227D99918304810044CAB6170024069608DC4CA0E6 DUP3 PUSH1 0x40 MLOAD PUSH2 0x500 SWAP2 DUP2 MSTORE PUSH1 0x20 ADD SWAP1 JUMP JUMPDEST PUSH1 0x40 MLOAD DUP1 SWAP2 SUB SWAP1 LOG2 PUSH2 0x511 PUSH1 0x1 DUP1 SSTORE JUMP JUMPDEST POP POP JUMP JUMPDEST PUSH2 0x51D PUSH2 0xC33 JUMP JUMPDEST PUSH1 0x1 PUSH1 0x1 PUSH1 0xA0 SHL SUB DUP2 AND PUSH2 0x562 JUMPI PUSH1 0x40 MLOAD PUSH3 0x461BCD PUSH1 0xE5 SHL DUP2 MSTORE PUSH1 0x20 PUSH1 0x4 DUP3 ADD MSTORE PUSH1 0xC PUSH1 0x24 DUP3 ADD MSTORE PUSH12 0x3D32B937903932B630BCB2B9 PUSH1 0xA1 SHL PUSH1 0x44 DUP3 ADD MSTORE PUSH1 0x64 ADD PUSH2 0x3BE JUMP JUMPDEST PUSH1 0x3 DUP1 SLOAD PUSH1 0x1 PUSH1 0x1 PUSH1 0xA0 SHL SUB NOT AND PUSH1 0x1 PUSH1 0x1 PUSH1 0xA0 SHL SUB DUP4 AND SWAP1 DUP2 OR SWAP1 SWAP2 SSTORE PUSH1 0x40 MLOAD PUSH32 0xB7041340E0C2A075059BF0488A71C767724BE15DAE8E737F8460007325E8D857 SWAP1 PUSH0 SWAP1 LOG2 POP JUMP JUMPDEST PUSH2 0x5B3 PUSH2 0xC33 JUMP JUMPDEST PUSH2 0x5BC PUSH0 PUSH2 0xCE0 JUMP JUMPDEST JUMP JUMPDEST PUSH2 0x5C6 PUSH2 0xC5F JUMP JUMPDEST PUSH7 0x110D9316EC000 CALLVALUE EQ PUSH2 0x60D JUMPI PUSH1 0x40 MLOAD PUSH3 0x461BCD PUSH1 0xE5 SHL DUP2 MSTORE PUSH1 0x20 PUSH1 0x4 DUP3 ADD MSTORE PUSH1 0xE PUSH1 0x24 DUP3 ADD MSTORE PUSH14 0xA0E4D2C6CA40DAD2E6DAC2E8C6D PUSH1 0x93 SHL PUSH1 0x44 DUP3 ADD MSTORE PUSH1 0x64 ADD PUSH2 0x3BE JUMP JUMPDEST PUSH1 0x40 MLOAD PUSH4 0x330806F1 PUSH1 0xE1 SHL DUP2 MSTORE PUSH1 0x1 PUSH1 0x1 PUSH1 0xA0 SHL SUB DUP6 AND SWAP1 PUSH4 0x66100DE2 SWAP1 PUSH6 0x9A9D359CA000 SWAP1 PUSH2 0x645 SWAP1 DUP8 SWAP1 DUP8 SWAP1 DUP8 SWAP1 PUSH1 0x4 ADD PUSH2 0x10BC JUMP JUMPDEST PUSH0 PUSH1 0x40 MLOAD DUP1 DUP4 SUB DUP2 DUP6 DUP9 DUP1 EXTCODESIZE ISZERO DUP1 ISZERO PUSH2 0x65C JUMPI PUSH0 DUP1 REVERT JUMPDEST POP GAS CALL SWAP4 POP POP POP POP DUP1 ISZERO PUSH2 0x66E JUMPI POP PUSH1 0x1 JUMPDEST PUSH2 0x6AA JUMPI PUSH1 0x1 PUSH1 0x1 PUSH1 0xA0 SHL SUB DUP5 AND PUSH0 SWAP1 DUP2 MSTORE PUSH1 0x2 PUSH1 0x20 MSTORE PUSH1 0x40 DUP2 KECCAK256 DUP1 SLOAD PUSH6 0x9A9D359CA000 SWAP3 SWAP1 PUSH2 0x69F SWAP1 DUP5 SWAP1 PUSH2 0x10FD JUMP JUMPDEST SWAP1 SWAP2 SSTORE POP PUSH2 0x6AA SWAP1 POP JUMP JUMPDEST DUP3 PUSH1 0x1 PUSH1 0x1 PUSH1 0xA0 SHL SUB AND DUP5 PUSH1 0x1 PUSH1 0x1 PUSH1 0xA0 SHL SUB AND PUSH32 0x115856D49F19E7DFE24B66C93020EC47CDBE5FF83A8E55616820BCAD6A0538F1 CALLVALUE DUP6 DUP6 PUSH1 0x40 MLOAD PUSH2 0x6F1 SWAP4 SWAP3 SWAP2 SWAP1 PUSH2 0x1116 JUMP JUMPDEST PUSH1 0x40 MLOAD DUP1 SWAP2 SUB SWAP1 LOG3 PUSH2 0x702 PUSH1 0x1 DUP1 SSTORE JUMP JUMPDEST POP POP POP POP JUMP JUMPDEST PUSH2 0x710 PUSH2 0xC5F JUMP JUMPDEST CALLER PUSH0 SWAP1 DUP2 MSTORE PUSH1 0x2 PUSH1 0x20 MSTORE PUSH1 0x40 SWAP1 KECCAK256 SLOAD DUP1 PUSH2 0x757 JUMPI PUSH1 0x40 MLOAD PUSH3 0x461BCD PUSH1 0xE5 SHL DUP2 MSTORE PUSH1 0x20 PUSH1 0x4 DUP3 ADD MSTORE PUSH1 0x8 PUSH1 0x24 DUP3 ADD MSTORE PUSH8 0x6E6F2066756E6473 PUSH1 0xC0 SHL PUSH1 0x44 DUP3 ADD MSTORE PUSH1 0x64 ADD PUSH2 0x3BE JUMP JUMPDEST CALLER PUSH0 DUP2 DUP2 MSTORE PUSH1 0x2 PUSH1 0x20 MSTORE PUSH1 0x40 DUP2 KECCAK256 SSTORE PUSH2 0x770 SWAP1 DUP3 PUSH2 0xD2F JUMP JUMPDEST PUSH1 0x40 MLOAD DUP2 DUP2 MSTORE CALLER SWAP1 PUSH32 0x5817FE91D2748C33F168D8A78037FC073ADAF6EC8E3613A758D44A2CFAE4563D SWAP1 PUSH1 0x20 ADD PUSH1 0x40 MLOAD DUP1 SWAP2 SUB SWAP1 LOG2 POP PUSH2 0x5BC PUSH1 0x1 DUP1 SSTORE JUMP JUMPDEST PUSH1 0x3 SLOAD PUSH1 0x1 PUSH1 0x1 PUSH1 0xA0 SHL SUB AND CALLER EQ PUSH2 0x7F8 JUMPI PUSH1 0x40 MLOAD PUSH3 0x461BCD PUSH1 0xE5 SHL DUP2 MSTORE PUSH1 0x20 PUSH1 0x4 DUP3 ADD MSTORE PUSH1 0xC PUSH1 0x24 DUP3 ADD MSTORE PUSH12 0x27B7363C903932B630BCB2B9 PUSH1 0xA1 SHL PUSH1 0x44 DUP3 ADD MSTORE PUSH1 0x64 ADD PUSH2 0x3BE JUMP JUMPDEST PUSH2 0x800 PUSH2 0xC5F JUMP JUMPDEST PUSH1 0x6 DUP3 DUP3 PUSH1 0x40 MLOAD PUSH2 0x812 SWAP3 SWAP2 SWAP1 PUSH2 0x112F JUMP JUMPDEST SWAP1 DUP2 MSTORE PUSH1 0x40 MLOAD SWAP1 DUP2 SWAP1 SUB PUSH1 0x20 ADD SWAP1 KECCAK256 SLOAD PUSH1 0xFF AND ISZERO PUSH2 0x872 JUMPI PUSH1 0x40 MLOAD PUSH3 0x461BCD PUSH1 0xE5 SHL DUP2 MSTORE PUSH1 0x20 PUSH1 0x4 DUP3 ADD MSTORE PUSH1 0x19 PUSH1 0x24 DUP3 ADD MSTORE PUSH32 0x5061796D656E7420616C72656164792070726F63657373656400000000000000 PUSH1 0x44 DUP3 ADD MSTORE PUSH1 0x64 ADD PUSH2 0x3BE JUMP JUMPDEST PUSH1 0x40 MLOAD PUSH4 0x70A08231 PUSH1 0xE0 SHL DUP2 MSTORE ADDRESS PUSH1 0x4 DUP3 ADD MSTORE DUP4 SWAP1 PUSH32 0x0 PUSH1 0x1 PUSH1 0x1 PUSH1 0xA0 SHL SUB AND SWAP1 PUSH4 0x70A08231 SWAP1 PUSH1 0x24 ADD PUSH1 0x20 PUSH1 0x40 MLOAD DUP1 DUP4 SUB DUP2 DUP7 GAS STATICCALL ISZERO DUP1 ISZERO PUSH2 0x8D6 JUMPI RETURNDATASIZE PUSH0 DUP1 RETURNDATACOPY RETURNDATASIZE PUSH0 REVERT JUMPDEST POP POP POP POP PUSH1 0x40 MLOAD RETURNDATASIZE PUSH1 0x1F NOT PUSH1 0x1F DUP3 ADD AND DUP3 ADD DUP1 PUSH1 0x40 MSTORE POP DUP2 ADD SWAP1 PUSH2 0x8FA SWAP2 SWAP1 PUSH2 0x107D JUMP JUMPDEST LT ISZERO PUSH2 0x948 JUMPI PUSH1 0x40 MLOAD PUSH3 0x461BCD PUSH1 0xE5 SHL DUP2 MSTORE PUSH1 0x20 PUSH1 0x4 DUP3 ADD MSTORE PUSH1 0x1C PUSH1 0x24 DUP3 ADD MSTORE PUSH32 0x496E73756666696369656E74205553444320696E2067616C6C65727900000000 PUSH1 0x44 DUP3 ADD MSTORE PUSH1 0x64 ADD PUSH2 0x3BE JUMP JUMPDEST PUSH1 0x1 PUSH1 0x6 DUP4 DUP4 PUSH1 0x40 MLOAD PUSH2 0x95C SWAP3 SWAP2 SWAP1 PUSH2 0x112F JUMP JUMPDEST SWAP1 DUP2 MSTORE PUSH1 0x40 MLOAD SWAP1 DUP2 SWAP1 SUB PUSH1 0x20 ADD SWAP1 KECCAK256 DUP1 SLOAD SWAP2 ISZERO ISZERO PUSH1 0xFF NOT SWAP1 SWAP3 AND SWAP2 SWAP1 SWAP2 OR SWAP1 SSTORE PUSH1 0x5 SLOAD PUSH0 SWAP1 ISZERO DUP1 ISZERO SWAP1 PUSH2 0x999 JUMPI POP PUSH1 0x4 SLOAD PUSH1 0x1 PUSH1 0x1 PUSH1 0xA0 SHL SUB AND ISZERO ISZERO JUMPDEST ISZERO PUSH2 0x9FB JUMPI PUSH2 0x2710 PUSH1 0x5 SLOAD DUP6 PUSH2 0x9AF SWAP2 SWAP1 PUSH2 0x113E JUMP JUMPDEST PUSH2 0x9B9 SWAP2 SWAP1 PUSH2 0x1155 JUMP JUMPDEST SWAP1 POP DUP1 ISZERO PUSH2 0x9FB JUMPI PUSH1 0x4 SLOAD PUSH2 0x9FB SWAP1 PUSH1 0x1 PUSH1 0x1 PUSH1 0xA0 SHL SUB PUSH32 0x0 DUP2 AND SWAP2 AND DUP4 PUSH2 0xC89 JUMP JUMPDEST PUSH0 PUSH2 0xA06 DUP3 DUP7 PUSH2 0x1174 JUMP JUMPDEST SWAP1 POP PUSH2 0xA3C PUSH1 0x1 PUSH1 0x1 PUSH1 0xA0 SHL SUB PUSH32 0x0 AND DUP9 DUP4 PUSH2 0xC89 JUMP JUMPDEST PUSH1 0x40 MLOAD PUSH4 0x4ED6A5F7 PUSH1 0xE0 SHL DUP2 MSTORE PUSH1 0x1 PUSH1 0x1 PUSH1 0xA0 SHL SUB DUP9 AND SWAP1 PUSH4 0x4ED6A5F7 SWAP1 PUSH2 0xA6C SWAP1 DUP10 SWAP1 DUP9 SWAP1 DUP9 SWAP1 PUSH1 0x4 ADD PUSH2 0x10BC JUMP JUMPDEST PUSH0 PUSH1 0x40 MLOAD DUP1 DUP4 SUB DUP2 PUSH0 DUP8 DUP1 EXTCODESIZE ISZERO DUP1 ISZERO PUSH2 0xA83 JUMPI PUSH0 DUP1 REVERT JUMPDEST POP GAS CALL ISZERO DUP1 ISZERO PUSH2 0xA95 JUMPI RETURNDATASIZE PUSH0 DUP1 RETURNDATACOPY RETURNDATASIZE PUSH0 REVERT JUMPDEST POP POP POP POP DUP6 PUSH1 0x1 PUSH1 0x1 PUSH1 0xA0 SHL SUB AND DUP8 PUSH1 0x1 PUSH1 0x1 PUSH1 0xA0 SHL SUB AND PUSH32 0x115856D49F19E7DFE24B66C93020EC47CDBE5FF83A8E55616820BCAD6A0538F1 DUP8 DUP8 DUP8 PUSH1 0x40 MLOAD PUSH2 0xAE0 SWAP4 SWAP3 SWAP2 SWAP1 PUSH2 0x1116 JUMP JUMPDEST PUSH1 0x40 MLOAD DUP1 SWAP2 SUB SWAP1 LOG3 POP POP PUSH2 0xAF3 PUSH1 0x1 DUP1 SSTORE JUMP JUMPDEST POP POP POP POP POP JUMP JUMPDEST PUSH2 0xB02 PUSH2 0xC33 JUMP JUMPDEST PUSH2 0x2710 DUP2 GT ISZERO PUSH2 0xB43 JUMPI PUSH1 0x40 MLOAD PUSH3 0x461BCD PUSH1 0xE5 SHL DUP2 MSTORE PUSH1 0x20 PUSH1 0x4 DUP3 ADD MSTORE PUSH1 0xC PUSH1 0x24 DUP3 ADD MSTORE PUSH12 0x62707320746F206C61726765 PUSH1 0xA0 SHL PUSH1 0x44 DUP3 ADD MSTORE PUSH1 0x64 ADD PUSH2 0x3BE JUMP JUMPDEST PUSH1 0x1 PUSH1 0x1 PUSH1 0xA0 SHL SUB DUP3 AND ISZERO ISZERO DUP1 PUSH2 0xB58 JUMPI POP DUP1 ISZERO JUMPDEST PUSH2 0xB9C JUMPI PUSH1 0x40 MLOAD PUSH3 0x461BCD PUSH1 0xE5 SHL DUP2 MSTORE PUSH1 0x20 PUSH1 0x4 DUP3 ADD MSTORE PUSH1 0x15 PUSH1 0x24 DUP3 ADD MSTORE PUSH21 0x1A5B9D985B1A5908199959481C9958DA5C1A595B9D PUSH1 0x5A SHL PUSH1 0x44 DUP3 ADD MSTORE PUSH1 0x64 ADD PUSH2 0x3BE JUMP JUMPDEST PUSH1 0x4 DUP1 SLOAD PUSH1 0x1 PUSH1 0x1 PUSH1 0xA0 SHL SUB NOT AND PUSH1 0x1 PUSH1 0x1 PUSH1 0xA0 SHL SUB DUP5 AND SWAP1 DUP2 OR SWAP1 SWAP2 SSTORE PUSH1 0x5 DUP3 SWAP1 SSTORE PUSH1 0x40 MLOAD DUP3 DUP2 MSTORE PUSH32 0x6F0EAF2C2F89FB4CFE96A1DEE5E764D60B52C7F48AAA590F0850E308AA1B953A SWAP1 PUSH1 0x20 ADD PUSH1 0x40 MLOAD DUP1 SWAP2 SUB SWAP1 LOG2 POP POP JUMP JUMPDEST PUSH2 0xBFE PUSH2 0xC33 JUMP JUMPDEST PUSH1 0x1 PUSH1 0x1 PUSH1 0xA0 SHL SUB DUP2 AND PUSH2 0xC27 JUMPI PUSH1 0x40 MLOAD PUSH4 0x1E4FBDF7 PUSH1 0xE0 SHL DUP2 MSTORE PUSH0 PUSH1 0x4 DUP3 ADD MSTORE PUSH1 0x24 ADD PUSH2 0x3BE JUMP JUMPDEST PUSH2 0xC30 DUP2 PUSH2 0xCE0 JUMP JUMPDEST POP JUMP JUMPDEST PUSH0 SLOAD PUSH1 0x1 PUSH1 0x1 PUSH1 0xA0 SHL SUB AND CALLER EQ PUSH2 0x5BC JUMPI PUSH1 0x40 MLOAD PUSH4 0x118CDAA7 PUSH1 0xE0 SHL DUP2 MSTORE CALLER PUSH1 0x4 DUP3 ADD MSTORE PUSH1 0x24 ADD PUSH2 0x3BE JUMP JUMPDEST PUSH1 0x2 PUSH1 0x1 SLOAD SUB PUSH2 0xC82 JUMPI PUSH1 0x40 MLOAD PUSH4 0x3EE5AEB5 PUSH1 0xE0 SHL DUP2 MSTORE PUSH1 0x4 ADD PUSH1 0x40 MLOAD DUP1 SWAP2 SUB SWAP1 REVERT JUMPDEST PUSH1 0x2 PUSH1 0x1 SSTORE JUMP JUMPDEST PUSH1 0x40 DUP1 MLOAD PUSH1 0x1 PUSH1 0x1 PUSH1 0xA0 SHL SUB DUP5 AND PUSH1 0x24 DUP3 ADD MSTORE PUSH1 0x44 DUP1 DUP3 ADD DUP5 SWAP1 MSTORE DUP3 MLOAD DUP1 DUP4 SUB SWAP1 SWAP2 ADD DUP2 MSTORE PUSH1 0x64 SWAP1 SWAP2 ADD SWAP1 SWAP2 MSTORE PUSH1 0x20 DUP2 ADD DUP1 MLOAD PUSH1 0x1 PUSH1 0x1 PUSH1 0xE0 SHL SUB AND PUSH4 0xA9059CBB PUSH1 0xE0 SHL OR SWAP1 MSTORE PUSH2 0xCDB SWAP1 DUP5 SWAP1 PUSH2 0xDBB JUMP JUMPDEST POP POP POP JUMP JUMPDEST PUSH0 DUP1 SLOAD PUSH1 0x1 PUSH1 0x1 PUSH1 0xA0 SHL SUB DUP4 DUP2 AND PUSH1 0x1 PUSH1 0x1 PUSH1 0xA0 SHL SUB NOT DUP4 AND DUP2 OR DUP5 SSTORE PUSH1 0x40 MLOAD SWAP2 SWAP1 SWAP3 AND SWAP3 DUP4 SWAP2 PUSH32 0x8BE0079C531659141344CD1FD0A4F28419497F9722A3DAAFE3B4186F6B6457E0 SWAP2 SWAP1 LOG3 POP POP JUMP JUMPDEST DUP1 SELFBALANCE LT ISZERO PUSH2 0xD59 JUMPI PUSH1 0x40 MLOAD PUSH4 0xCF479181 PUSH1 0xE0 SHL DUP2 MSTORE SELFBALANCE PUSH1 0x4 DUP3 ADD MSTORE PUSH1 0x24 DUP2 ADD DUP3 SWAP1 MSTORE PUSH1 0x44 ADD PUSH2 0x3BE JUMP JUMPDEST PUSH0 DUP1 DUP4 PUSH1 0x1 PUSH1 0x1 PUSH1 0xA0 SHL SUB AND DUP4 PUSH1 0x40 MLOAD PUSH0 PUSH1 0x40 MLOAD DUP1 DUP4 SUB DUP2 DUP6 DUP8 GAS CALL SWAP3 POP POP POP RETURNDATASIZE DUP1 PUSH0 DUP2 EQ PUSH2 0xDA3 JUMPI PUSH1 0x40 MLOAD SWAP2 POP PUSH1 0x1F NOT PUSH1 0x3F RETURNDATASIZE ADD AND DUP3 ADD PUSH1 0x40 MSTORE RETURNDATASIZE DUP3 MSTORE RETURNDATASIZE PUSH0 PUSH1 0x20 DUP5 ADD RETURNDATACOPY PUSH2 0xDA8 JUMP JUMPDEST PUSH1 0x60 SWAP2 POP JUMPDEST POP SWAP2 POP SWAP2 POP DUP2 PUSH2 0x702 JUMPI PUSH2 0x702 DUP2 PUSH2 0xE27 JUMP JUMPDEST PUSH0 DUP1 PUSH1 0x20 PUSH0 DUP5 MLOAD PUSH1 0x20 DUP7 ADD PUSH0 DUP9 GAS CALL DUP1 PUSH2 0xDDA JUMPI PUSH1 0x40 MLOAD RETURNDATASIZE PUSH0 DUP3 RETURNDATACOPY RETURNDATASIZE DUP2 REVERT JUMPDEST POP POP PUSH0 MLOAD RETURNDATASIZE SWAP2 POP DUP2 ISZERO PUSH2 0xDF1 JUMPI DUP1 PUSH1 0x1 EQ ISZERO PUSH2 0xDFE JUMP JUMPDEST PUSH1 0x1 PUSH1 0x1 PUSH1 0xA0 SHL SUB DUP5 AND EXTCODESIZE ISZERO JUMPDEST ISZERO PUSH2 0x702 JUMPI PUSH1 0x40 MLOAD PUSH4 0x5274AFE7 PUSH1 0xE0 SHL DUP2 MSTORE PUSH1 0x1 PUSH1 0x1 PUSH1 0xA0 SHL SUB DUP6 AND PUSH1 0x4 DUP3 ADD MSTORE PUSH1 0x24 ADD PUSH2 0x3BE JUMP JUMPDEST DUP1 MLOAD ISZERO PUSH2 0xE36 JUMPI DUP1 MLOAD PUSH1 0x20 DUP3 ADD REVERT JUMPDEST PUSH1 0x40 MLOAD PUSH4 0xD6BDA275 PUSH1 0xE0 SHL DUP2 MSTORE PUSH1 0x4 ADD PUSH1 0x40 MLOAD DUP1 SWAP2 SUB SWAP1 REVERT JUMPDEST DUP1 CALLDATALOAD PUSH1 0x1 PUSH1 0x1 PUSH1 0xA0 SHL SUB DUP2 AND DUP2 EQ PUSH2 0xE65 JUMPI PUSH0 DUP1 REVERT JUMPDEST SWAP2 SWAP1 POP JUMP JUMPDEST PUSH0 DUP1 PUSH1 0x40 DUP4 DUP6 SUB SLT ISZERO PUSH2 0xE7B JUMPI PUSH0 DUP1 REVERT JUMPDEST PUSH2 0xE84 DUP4 PUSH2 0xE4F JUMP JUMPDEST SWAP5 PUSH1 0x20 SWAP4 SWAP1 SWAP4 ADD CALLDATALOAD SWAP4 POP POP POP JUMP JUMPDEST PUSH4 0x4E487B71 PUSH1 0xE0 SHL PUSH0 MSTORE PUSH1 0x41 PUSH1 0x4 MSTORE PUSH1 0x24 PUSH0 REVERT JUMPDEST PUSH0 PUSH1 0x20 DUP3 DUP5 SUB SLT ISZERO PUSH2 0xEB6 JUMPI PUSH0 DUP1 REVERT JUMPDEST DUP2 CALLDATALOAD PUSH8 0xFFFFFFFFFFFFFFFF DUP1 DUP3 GT ISZERO PUSH2 0xECD JUMPI PUSH0 DUP1 REVERT JUMPDEST DUP2 DUP5 ADD SWAP2 POP DUP5 PUSH1 0x1F DUP4 ADD SLT PUSH2 0xEE0 JUMPI PUSH0 DUP1 REVERT JUMPDEST DUP2 CALLDATALOAD DUP2 DUP2 GT ISZERO PUSH2 0xEF2 JUMPI PUSH2 0xEF2 PUSH2 0xE92 JUMP JUMPDEST PUSH1 0x40 MLOAD PUSH1 0x1F DUP3 ADD PUSH1 0x1F NOT SWAP1 DUP2 AND PUSH1 0x3F ADD AND DUP2 ADD SWAP1 DUP4 DUP3 GT DUP2 DUP4 LT OR ISZERO PUSH2 0xF1A JUMPI PUSH2 0xF1A PUSH2 0xE92 JUMP JUMPDEST DUP2 PUSH1 0x40 MSTORE DUP3 DUP2 MSTORE DUP8 PUSH1 0x20 DUP5 DUP8 ADD ADD GT ISZERO PUSH2 0xF32 JUMPI PUSH0 DUP1 REVERT JUMPDEST DUP3 PUSH1 0x20 DUP7 ADD PUSH1 0x20 DUP4 ADD CALLDATACOPY PUSH0 SWAP3 DUP2 ADD PUSH1 0x20 ADD SWAP3 SWAP1 SWAP3 MSTORE POP SWAP6 SWAP5 POP POP POP POP POP JUMP JUMPDEST PUSH0 PUSH1 0x20 DUP3 DUP5 SUB SLT ISZERO PUSH2 0xF61 JUMPI PUSH0 DUP1 REVERT JUMPDEST PUSH2 0xF6A DUP3 PUSH2 0xE4F JUMP JUMPDEST SWAP4 SWAP3 POP POP POP JUMP JUMPDEST PUSH0 DUP1 DUP4 PUSH1 0x1F DUP5 ADD SLT PUSH2 0xF81 JUMPI PUSH0 DUP1 REVERT JUMPDEST POP DUP2 CALLDATALOAD PUSH8 0xFFFFFFFFFFFFFFFF DUP2 GT ISZERO PUSH2 0xF98 JUMPI PUSH0 DUP1 REVERT JUMPDEST PUSH1 0x20 DUP4 ADD SWAP2 POP DUP4 PUSH1 0x20 DUP3 DUP6 ADD ADD GT ISZERO PUSH2 0xFAF JUMPI PUSH0 DUP1 REVERT JUMPDEST SWAP3 POP SWAP3 SWAP1 POP JUMP JUMPDEST PUSH0 DUP1 PUSH0 DUP1 PUSH1 0x60 DUP6 DUP8 SUB SLT ISZERO PUSH2 0xFC9 JUMPI PUSH0 DUP1 REVERT JUMPDEST PUSH2 0xFD2 DUP6 PUSH2 0xE4F JUMP JUMPDEST SWAP4 POP PUSH2 0xFE0 PUSH1 0x20 DUP7 ADD PUSH2 0xE4F JUMP JUMPDEST SWAP3 POP PUSH1 0x40 DUP6 ADD CALLDATALOAD PUSH8 0xFFFFFFFFFFFFFFFF DUP2 GT ISZERO PUSH2 0xFFB JUMPI PUSH0 DUP1 REVERT JUMPDEST PUSH2 0x1007 DUP8 DUP3 DUP9 ADD PUSH2 0xF71 JUMP JUMPDEST SWAP6 SWAP9 SWAP5 SWAP8 POP SWAP6 POP POP POP POP JUMP JUMPDEST PUSH0 DUP1 PUSH0 DUP1 PUSH0 PUSH1 0x80 DUP7 DUP9 SUB SLT ISZERO PUSH2 0x1027 JUMPI PUSH0 DUP1 REVERT JUMPDEST PUSH2 0x1030 DUP7 PUSH2 0xE4F JUMP JUMPDEST SWAP5 POP PUSH2 0x103E PUSH1 0x20 DUP8 ADD PUSH2 0xE4F JUMP JUMPDEST SWAP4 POP PUSH1 0x40 DUP7 ADD CALLDATALOAD SWAP3 POP PUSH1 0x60 DUP7 ADD CALLDATALOAD PUSH8 0xFFFFFFFFFFFFFFFF DUP2 GT ISZERO PUSH2 0x1060 JUMPI PUSH0 DUP1 REVERT JUMPDEST PUSH2 0x106C DUP9 DUP3 DUP10 ADD PUSH2 0xF71 JUMP JUMPDEST SWAP7 SWAP10 SWAP6 SWAP9 POP SWAP4 SWAP7 POP SWAP3 SWAP5 SWAP4 SWAP3 POP POP POP JUMP JUMPDEST PUSH0 PUSH1 0x20 DUP3 DUP5 SUB SLT ISZERO PUSH2 0x108D JUMPI PUSH0 DUP1 REVERT JUMPDEST POP MLOAD SWAP2 SWAP1 POP JUMP JUMPDEST DUP2 DUP4 MSTORE DUP2 DUP2 PUSH1 0x20 DUP6 ADD CALLDATACOPY POP PUSH0 DUP3 DUP3 ADD PUSH1 0x20 SWAP1 DUP2 ADD SWAP2 SWAP1 SWAP2 MSTORE PUSH1 0x1F SWAP1 SWAP2 ADD PUSH1 0x1F NOT AND SWAP1 SWAP2 ADD ADD SWAP1 JUMP JUMPDEST PUSH1 0x1 PUSH1 0x1 PUSH1 0xA0 SHL SUB DUP5 AND DUP2 MSTORE PUSH1 0x40 PUSH1 0x20 DUP3 ADD DUP2 SWAP1 MSTORE PUSH0 SWAP1 PUSH2 0x10E0 SWAP1 DUP4 ADD DUP5 DUP7 PUSH2 0x1094 JUMP JUMPDEST SWAP6 SWAP5 POP POP POP POP POP JUMP JUMPDEST PUSH4 0x4E487B71 PUSH1 0xE0 SHL PUSH0 MSTORE PUSH1 0x11 PUSH1 0x4 MSTORE PUSH1 0x24 PUSH0 REVERT JUMPDEST DUP1 DUP3 ADD DUP1 DUP3 GT ISZERO PUSH2 0x1110 JUMPI PUSH2 0x1110 PUSH2 0x10E9 JUMP JUMPDEST SWAP3 SWAP2 POP POP JUMP JUMPDEST DUP4 DUP2 MSTORE PUSH1 0x40 PUSH1 0x20 DUP3 ADD MSTORE PUSH0 PUSH2 0x10E0 PUSH1 0x40 DUP4 ADD DUP5 DUP7 PUSH2 0x1094 JUMP JUMPDEST DUP2 DUP4 DUP3 CALLDATACOPY PUSH0 SWAP2 ADD SWAP1 DUP2 MSTORE SWAP2 SWAP1 POP JUMP JUMPDEST DUP1 DUP3 MUL DUP2 ISZERO DUP3 DUP3 DIV DUP5 EQ OR PUSH2 0x1110 JUMPI PUSH2 0x1110 PUSH2 0x10E9 JUMP JUMPDEST PUSH0 DUP3 PUSH2 0x116F JUMPI PUSH4 0x4E487B71 PUSH1 0xE0 SHL PUSH0 MSTORE PUSH1 0x12 PUSH1 0x4 MSTORE PUSH1 0x24 PUSH0 REVERT JUMPDEST POP DIV SWAP1 JUMP JUMPDEST DUP2 DUP2 SUB DUP2 DUP2 GT ISZERO PUSH2 0x1110 JUMPI PUSH2 0x1110 PUSH2 0x10E9 JUMP INVALID LOG2 PUSH5 0x6970667358 0x22 SLT KECCAK256 PUSH7 0x9C61C3BF58744F MSTORE8 0xCC PUSH19 0xA8C1E7138CADE18D384EE493BF6649F4476E1D SMOD 0xE3 PUSH5 0x736F6C6343 STOP ADDMOD EQ STOP CALLER "},"methodIdentifiers":{"MINT_PRICE()":"c002d23d","PAYEE1_AMOUNT()":"1ec7605c","PAYEE2_AMOUNT()":"4af044aa","feeBps()":"24a9d853","feeRecipient()":"46904840","owner()":"8da5cb5b","payAndMint(address,address,string)":"725a8294","pendingWithdrawals(address)":"f3f43703","processPayment(address,address,uint256,string)":"bbe96b00","processedPayment(string)":"623e752b","relayer()":"8406c079","renounceOwnership()":"715018a6","setFee(address,uint256)":"e55156b5","setRelayer(address)":"6548e9bc","transferOwnership(address)":"f2fde38b","usdc()":"3e413bee","withdrawPending()":"7edbceb1","withdrawUSDC(address,uint256)":"44471fd9"}}}}}