{
  "_format": "hh3-artifact-1",
  "contractName": "Gallery",
  "sourceName": "contracts/Gallery.sol",
  "abi": [
    {
      "inputs": [
        {
          "internalType": "address",
          "name": "_usdc",
          "type": "address"
        }
      ],
      "stateMutability": "nonpayable",
      "type": "constructor"
    },
    {
      "inputs": [],
      "name": "FailedCall",
      "type": "error"
    },
    {
      "inputs": [
        {
          "internalType": "uint256",
          "name": "balance",
          "type": "uint256"
        },
        {
          "internalType": "uint256",
          "name": "needed",
          "type": "uint256"
        }
      ],
      "name": "InsufficientBalance",
      "type": "error"
    },
    {
      "inputs": [
        {
          "internalType": "address",
          "name": "owner",
          "type": "address"
        }
      ],
      "name": "OwnableInvalidOwner",
      "type": "error"
    },
    {
      "inputs": [
        {
          "internalType": "address",
          "name": "account",
          "type": "address"
        }
      ],
      "name": "OwnableUnauthorizedAccount",
      "type": "error"
    },
    {
      "inputs": [],
      "name": "ReentrancyGuardReentrantCall",
      "type": "error"
    },
    {
      "inputs": [
        {
          "internalType": "address",
          "name": "token",
          "type": "address"
        }
      ],
      "name": "SafeERC20FailedOperation",
      "type": "error"
    },
    {
      "anonymous": false,
      "inputs": [
        {
          "indexed": true,
          "internalType": "address",
          "name": "recipient",
          "type": "address"
        },
        {
          "indexed": false,
          "internalType": "uint256",
          "name": "bps",
          "type": "uint256"
        }
      ],
      "name": "FeeUpdated",
      "type": "event"
    },
    {
      "anonymous": false,
      "inputs": [
        {
          "indexed": true,
          "internalType": "address",
          "name": "previousOwner",
          "type": "address"
        },
        {
          "indexed": true,
          "internalType": "address",
          "name": "newOwner",
          "type": "address"
        }
      ],
      "name": "OwnershipTransferred",
      "type": "event"
    },
    {
      "anonymous": false,
      "inputs": [
        {
          "indexed": true,
          "internalType": "address",
          "name": "artistContract",
          "type": "address"
        },
        {
          "indexed": true,
          "internalType": "address",
          "name": "to",
          "type": "address"
        },
        {
          "indexed": false,
          "internalType": "uint256",
          "name": "amount",
          "type": "uint256"
        },
        {
          "indexed": false,
          "internalType": "string",
          "name": "paymentId",
          "type": "string"
        }
      ],
      "name": "Processed",
      "type": "event"
    },
    {
      "anonymous": false,
      "inputs": [
        {
          "indexed": true,
          "internalType": "address",
          "name": "relayer",
          "type": "address"
        }
      ],
      "name": "RelayerSet",
      "type": "event"
    },
    {
      "anonymous": false,
      "inputs": [
        {
          "indexed": true,
          "internalType": "address",
          "name": "to",
          "type": "address"
        },
        {
          "indexed": false,
          "internalType": "uint256",
          "name": "amount",
          "type": "uint256"
        }
      ],
      "name": "WithdrawnETH",
      "type": "event"
    },
    {
      "anonymous": false,
      "inputs": [
        {
          "indexed": true,
          "internalType": "address",
          "name": "to",
          "type": "address"
        },
        {
          "indexed": false,
          "internalType": "uint256",
          "name": "amount",
          "type": "uint256"
        }
      ],
      "name": "WithdrawnUSDC",
      "type": "event"
    },
    {
      "inputs": [],
      "name": "MINT_PRICE",
      "outputs": [
        {
          "internalType": "uint256",
          "name": "",
          "type": "uint256"
        }
      ],
      "stateMutability": "view",
      "type": "function"
    },
    {
      "inputs": [],
      "name": "PAYEE1_AMOUNT",
      "outputs": [
        {
          "internalType": "uint256",
          "name": "",
          "type": "uint256"
        }
      ],
      "stateMutability": "view",
      "type": "function"
    },
    {
      "inputs": [],
      "name": "PAYEE2_AMOUNT",
      "outputs": [
        {
          "internalType": "uint256",
          "name": "",
          "type": "uint256"
        }
      ],
      "stateMutability": "view",
      "type": "function"
    },
    {
      "inputs": [],
      "name": "feeBps",
      "outputs": [
        {
          "internalType": "uint256",
          "name": "",
          "type": "uint256"
        }
      ],
      "stateMutability": "view",
      "type": "function"
    },
    {
      "inputs": [],
      "name": "feeRecipient",
      "outputs": [
        {
          "internalType": "address",
          "name": "",
          "type": "address"
        }
      ],
      "stateMutability": "view",
      "type": "function"
    },
    {
      "inputs": [],
      "name": "owner",
      "outputs": [
        {
          "internalType": "address",
          "name": "",
          "type": "address"
        }
      ],
      "stateMutability": "view",
      "type": "function"
    },
    {
      "inputs": [
        {
          "internalType": "address",
          "name": "artistContract",
          "type": "address"
        },
        {
          "internalType": "address",
          "name": "to",
          "type": "address"
        },
        {
          "internalType": "string",
          "name": "paymentId",
          "type": "string"
        }
      ],
      "name": "payAndMint",
      "outputs": [],
      "stateMutability": "payable",
      "type": "function"
    },
    {
      "inputs": [
        {
          "internalType": "address",
          "name": "",
          "type": "address"
        }
      ],
      "name": "pendingWithdrawals",
      "outputs": [
        {
          "internalType": "uint256",
          "name": "",
          "type": "uint256"
        }
      ],
      "stateMutability": "view",
      "type": "function"
    },
    {
      "inputs": [
        {
          "internalType": "address",
          "name": "artistContract",
          "type": "address"
        },
        {
          "internalType": "address",
          "name": "to",
          "type": "address"
        },
        {
          "internalType": "uint256",
          "name": "amount",
          "type": "uint256"
        },
        {
          "internalType": "string",
          "name": "paymentId",
          "type": "string"
        }
      ],
      "name": "processPayment",
      "outputs": [],
      "stateMutability": "nonpayable",
      "type": "function"
    },
    {
      "inputs": [
        {
          "internalType": "string",
          "name": "",
          "type": "string"
        }
      ],
      "name": "processedPayment",
      "outputs": [
        {
          "internalType": "bool",
          "name": "",
          "type": "bool"
        }
      ],
      "stateMutability": "view",
      "type": "function"
    },
    {
      "inputs": [],
      "name": "relayer",
      "outputs": [
        {
          "internalType": "address",
          "name": "",
          "type": "address"
        }
      ],
      "stateMutability": "view",
      "type": "function"
    },
    {
      "inputs": [],
      "name": "renounceOwnership",
      "outputs": [],
      "stateMutability": "nonpayable",
      "type": "function"
    },
    {
      "inputs": [
        {
          "internalType": "address",
          "name": "_recipient",
          "type": "address"
        },
        {
          "internalType": "uint256",
          "name": "_bps",
          "type": "uint256"
        }
      ],
      "name": "setFee",
      "outputs": [],
      "stateMutability": "nonpayable",
      "type": "function"
    },
    {
      "inputs": [
        {
          "internalType": "address",
          "name": "_r",
          "type": "address"
        }
      ],
      "name": "setRelayer",
      "outputs": [],
      "stateMutability": "nonpayable",
      "type": "function"
    },
    {
      "inputs": [
        {
          "internalType": "address",
          "name": "newOwner",
          "type": "address"
        }
      ],
      "name": "transferOwnership",
      "outputs": [],
      "stateMutability": "nonpayable",
      "type": "function"
    },
    {
      "inputs": [],
      "name": "usdc",
      "outputs": [
        {
          "internalType": "contract IERC20",
          "name": "",
          "type": "address"
        }
      ],
      "stateMutability": "view",
      "type": "function"
    },
    {
      "inputs": [],
      "name": "withdrawPending",
      "outputs": [],
      "stateMutability": "nonpayable",
      "type": "function"
    },
    {
      "inputs": [
        {
          "internalType": "address",
          "name": "to",
          "type": "address"
        },
        {
          "internalType": "uint256",
          "name": "amount",
          "type": "uint256"
        }
      ],
      "name": "withdrawUSDC",
      "outputs": [],
      "stateMutability": "nonpayable",
      "type": "function"
    }
  ],
  "bytecode": "0x60a060405234801561000f575f80fd5b506040516112fa3803806112fa83398101604081905261002e916100d5565b338061005357604051631e4fbdf760e01b81525f600482015260240160405180910390fd5b61005c81610086565b50600180556001600160a01b0316608052600480546001600160a01b03191690555f600555610102565b5f80546001600160a01b038381166001600160a01b0319831681178455604051919092169283917f8be0079c531659141344cd1fd0a4f28419497f9722a3daafe3b4186f6b6457e09190a35050565b5f602082840312156100e5575f80fd5b81516001600160a01b03811681146100fb575f80fd5b9392505050565b6080516111bd61013d5f395f818161015b015281816103de0152818161049e01528181610889015281816109d20152610a1501526111bd5ff3fe608060405260043610610105575f3560e01c8063725a829411610092578063bbe96b0011610062578063bbe96b00146102cd578063c002d23d146102ec578063e55156b514610306578063f2fde38b14610325578063f3f4370314610344575f80fd5b8063725a82941461026b5780637edbceb11461027e5780638406c079146102925780638da5cb5b146102b1575f80fd5b806346904840116100d857806346904840146101b65780634af044aa146101d5578063623e752b146101ee5780636548e9bc14610238578063715018a614610257575f80fd5b80631ec7605c1461010957806324a9d853146101355780633e413bee1461014a57806344471fd914610195575b5f80fd5b348015610114575f80fd5b50610122659a9d359ca00081565b6040519081526020015b60405180910390f35b348015610140575f80fd5b5061012260055481565b348015610155575f80fd5b5061017d7f000000000000000000000000000000000000000000000000000000000000000081565b6040516001600160a01b03909116815260200161012c565b3480156101a0575f80fd5b506101b46101af366004610e6a565b61036f565b005b3480156101c1575f80fd5b5060045461017d906001600160a01b031681565b3480156101e0575f80fd5b5061012265763bfbd2200081565b3480156101f9575f80fd5b50610228610208366004610ea6565b805160208183018101805160068252928201919093012091525460ff1681565b604051901515815260200161012c565b348015610243575f80fd5b506101b4610252366004610f51565b610515565b348015610262575f80fd5b506101b46105ab565b6101b4610279366004610fb6565b6105be565b348015610289575f80fd5b506101b4610708565b34801561029d575f80fd5b5060035461017d906001600160a01b031681565b3480156102bc575f80fd5b505f546001600160a01b031661017d565b3480156102d8575f80fd5b506101b46102e7366004611013565b6107af565b3480156102f7575f80fd5b50610122660110d9316ec00081565b348015610311575f80fd5b506101b4610320366004610e6a565b610afa565b348015610330575f80fd5b506101b461033f366004610f51565b610bf6565b34801561034f575f80fd5b5061012261035e366004610f51565b60026020525f908152604090205481565b610377610c33565b61037f610c5f565b6001600160a01b0382166103c75760405162461bcd60e51b815260206004820152600a602482015269696e76616c696420746f60b01b60448201526064015b60405180910390fd5b6040516370a0823160e01b815230600482015281907f00000000000000000000000000000000000000000000000000000000000000006001600160a01b0316906370a0823190602401602060405180830381865afa15801561042b573d5f803e3d5ffd5b505050506040513d601f19601f8201168201806040525081019061044f919061107d565b10156104915760405162461bcd60e51b8152602060048201526011602482015270496e73756666696369656e74205553444360781b60448201526064016103be565b6104c56001600160a01b037f0000000000000000000000000000000000000000000000000000000000000000168383610c89565b816001600160a01b03167f9064b460fd73b0517caa24227d99918304810044cab6170024069608dc4ca0e68260405161050091815260200190565b60405180910390a261051160018055565b5050565b61051d610c33565b6001600160a01b0381166105625760405162461bcd60e51b815260206004820152600c60248201526b3d32b937903932b630bcb2b960a11b60448201526064016103be565b600380546001600160a01b0319166001600160a01b0383169081179091556040517fb7041340e0c2a075059bf0488a71c767724be15dae8e737f8460007325e8d857905f90a250565b6105b3610c33565b6105bc5f610ce0565b565b6105c6610c5f565b660110d9316ec000341461060d5760405162461bcd60e51b815260206004820152600e60248201526d0a0e4d2c6ca40dad2e6dac2e8c6d60931b60448201526064016103be565b60405163330806f160e11b81526001600160a01b038516906366100de290659a9d359ca00090610645908790879087906004016110bc565b5f604051808303818588803b15801561065c575f80fd5b505af19350505050801561066e575060015b6106aa576001600160a01b0384165f9081526002602052604081208054659a9d359ca000929061069f9084906110fd565b909155506106aa9050565b826001600160a01b0316846001600160a01b03167f115856d49f19e7dfe24b66c93020ec47cdbe5ff83a8e55616820bcad6a0538f13485856040516106f193929190611116565b60405180910390a361070260018055565b50505050565b610710610c5f565b335f90815260026020526040902054806107575760405162461bcd60e51b81526020600482015260086024820152676e6f2066756e647360c01b60448201526064016103be565b335f818152600260205260408120556107709082610d2f565b60405181815233907f5817fe91d2748c33f168d8a78037fc073adaf6ec8e3613a758d44a2cfae4563d9060200160405180910390a2506105bc60018055565b6003546001600160a01b031633146107f85760405162461bcd60e51b815260206004820152600c60248201526b27b7363c903932b630bcb2b960a11b60448201526064016103be565b610800610c5f565b6006828260405161081292919061112f565b9081526040519081900360200190205460ff16156108725760405162461bcd60e51b815260206004820152601960248201527f5061796d656e7420616c72656164792070726f6365737365640000000000000060448201526064016103be565b6040516370a0823160e01b815230600482015283907f00000000000000000000000000000000000000000000000000000000000000006001600160a01b0316906370a0823190602401602060405180830381865afa1580156108d6573d5f803e3d5ffd5b505050506040513d601f19601f820116820180604052508101906108fa919061107d565b10156109485760405162461bcd60e51b815260206004820152601c60248201527f496e73756666696369656e74205553444320696e2067616c6c6572790000000060448201526064016103be565b60016006838360405161095c92919061112f565b908152604051908190036020019020805491151560ff199092169190911790556005545f901580159061099957506004546001600160a01b031615155b156109fb57612710600554856109af919061113e565b6109b99190611155565b905080156109fb576004546109fb906001600160a01b037f00000000000000000000000000000000000000000000000000000000000000008116911683610c89565b5f610a068286611174565b9050610a3c6001600160a01b037f0000000000000000000000000000000000000000000000000000000000000000168883610c89565b604051634ed6a5f760e01b81526001600160a01b03881690634ed6a5f790610a6c908990889088906004016110bc565b5f604051808303815f87803b158015610a83575f80fd5b505af1158015610a95573d5f803e3d5ffd5b50505050856001600160a01b0316876001600160a01b03167f115856d49f19e7dfe24b66c93020ec47cdbe5ff83a8e55616820bcad6a0538f1878787604051610ae093929190611116565b60405180910390a35050610af360018055565b5050505050565b610b02610c33565b612710811115610b435760405162461bcd60e51b815260206004820152600c60248201526b62707320746f206c6172676560a01b60448201526064016103be565b6001600160a01b038216151580610b58575080155b610b9c5760405162461bcd60e51b81526020600482015260156024820152741a5b9d985b1a5908199959481c9958da5c1a595b9d605a1b60448201526064016103be565b600480546001600160a01b0319166001600160a01b03841690811790915560058290556040518281527f6f0eaf2c2f89fb4cfe96a1dee5e764d60b52c7f48aaa590f0850e308aa1b953a9060200160405180910390a25050565b610bfe610c33565b6001600160a01b038116610c2757604051631e4fbdf760e01b81525f60048201526024016103be565b610c3081610ce0565b50565b5f546001600160a01b031633146105bc5760405163118cdaa760e01b81523360048201526024016103be565b600260015403610c8257604051633ee5aeb560e01b815260040160405180910390fd5b6002600155565b604080516001600160a01b038416602482015260448082018490528251808303909101815260649091019091526020810180516001600160e01b031663a9059cbb60e01b179052610cdb908490610dbb565b505050565b5f80546001600160a01b038381166001600160a01b0319831681178455604051919092169283917f8be0079c531659141344cd1fd0a4f28419497f9722a3daafe3b4186f6b6457e09190a35050565b80471015610d595760405163cf47918160e01b8152476004820152602481018290526044016103be565b5f80836001600160a01b0316836040515f6040518083038185875af1925050503d805f8114610da3576040519150601f19603f3d011682016040523d82523d5f602084013e610da8565b606091505b5091509150816107025761070281610e27565b5f8060205f8451602086015f885af180610dda576040513d5f823e3d81fd5b50505f513d91508115610df1578060011415610dfe565b6001600160a01b0384163b155b1561070257604051635274afe760e01b81526001600160a01b03851660048201526024016103be565b805115610e3657805160208201fd5b60405163d6bda27560e01b815260040160405180910390fd5b80356001600160a01b0381168114610e65575f80fd5b919050565b5f8060408385031215610e7b575f80fd5b610e8483610e4f565b946020939093013593505050565b634e487b7160e01b5f52604160045260245ffd5b5f60208284031215610eb6575f80fd5b813567ffffffffffffffff80821115610ecd575f80fd5b818401915084601f830112610ee0575f80fd5b813581811115610ef257610ef2610e92565b604051601f8201601f19908116603f01168101908382118183101715610f1a57610f1a610e92565b81604052828152876020848701011115610f32575f80fd5b826020860160208301375f928101602001929092525095945050505050565b5f60208284031215610f61575f80fd5b610f6a82610e4f565b9392505050565b5f8083601f840112610f81575f80fd5b50813567ffffffffffffffff811115610f98575f80fd5b602083019150836020828501011115610faf575f80fd5b9250929050565b5f805f8060608587031215610fc9575f80fd5b610fd285610e4f565b9350610fe060208601610e4f565b9250604085013567ffffffffffffffff811115610ffb575f80fd5b61100787828801610f71565b95989497509550505050565b5f805f805f60808688031215611027575f80fd5b61103086610e4f565b945061103e60208701610e4f565b935060408601359250606086013567ffffffffffffffff811115611060575f80fd5b61106c88828901610f71565b969995985093965092949392505050565b5f6020828403121561108d575f80fd5b5051919050565b81835281816020850137505f828201602090810191909152601f909101601f19169091010190565b6001600160a01b03841681526040602082018190525f906110e09083018486611094565b95945050505050565b634e487b7160e01b5f52601160045260245ffd5b80820180821115611110576111106110e9565b92915050565b838152604060208201525f6110e0604083018486611094565b818382375f9101908152919050565b8082028115828204841417611110576111106110e9565b5f8261116f57634e487b7160e01b5f52601260045260245ffd5b500490565b81810381811115611110576111106110e956fea2646970667358221220669c61c3bf58744f53cc72a8c1e7138cade18d384ee493bf6649f4476e1d07e364736f6c63430008140033",
  "linkReferences": {},
  "deployedLinkReferences": {},
  "immutableReferences": {
    "7554": [
      {
        "length": 32,
        "start": 347
      },
      {
        "length": 32,
        "start": 990
      },
      {
        "length": 32,
        "start": 1182
      },
      {
        "length": 32,
        "start": 2185
      },
      {
        "length": 32,
        "start": 2514
      },
      {
        "length": 32,
        "start": 2581
      }
    ]
  },
  "inputSourceName": "project/contracts/Gallery.sol",
  "buildInfoId": "solc-0_8_20-2772c6c79b215079e6ad411b2f161b1f8ef7758d"
}