{
  "_format": "hh3-artifact-1",
  "contractName": "MferMint",
  "sourceName": "contracts/MferMint.sol",
  "abi": [
    {
      "inputs": [
        {
          "internalType": "address",
          "name": "_usdc",
          "type": "address"
        },
        {
          "internalType": "uint256",
          "name": "_priceUSDC",
          "type": "uint256"
        }
      ],
      "stateMutability": "nonpayable",
      "type": "constructor"
    },
    {
      "inputs": [
        {
          "internalType": "address",
          "name": "sender",
          "type": "address"
        },
        {
          "internalType": "uint256",
          "name": "tokenId",
          "type": "uint256"
        },
        {
          "internalType": "address",
          "name": "owner",
          "type": "address"
        }
      ],
      "name": "ERC721IncorrectOwner",
      "type": "error"
    },
    {
      "inputs": [
        {
          "internalType": "address",
          "name": "operator",
          "type": "address"
        },
        {
          "internalType": "uint256",
          "name": "tokenId",
          "type": "uint256"
        }
      ],
      "name": "ERC721InsufficientApproval",
      "type": "error"
    },
    {
      "inputs": [
        {
          "internalType": "address",
          "name": "approver",
          "type": "address"
        }
      ],
      "name": "ERC721InvalidApprover",
      "type": "error"
    },
    {
      "inputs": [
        {
          "internalType": "address",
          "name": "operator",
          "type": "address"
        }
      ],
      "name": "ERC721InvalidOperator",
      "type": "error"
    },
    {
      "inputs": [
        {
          "internalType": "address",
          "name": "owner",
          "type": "address"
        }
      ],
      "name": "ERC721InvalidOwner",
      "type": "error"
    },
    {
      "inputs": [
        {
          "internalType": "address",
          "name": "receiver",
          "type": "address"
        }
      ],
      "name": "ERC721InvalidReceiver",
      "type": "error"
    },
    {
      "inputs": [
        {
          "internalType": "address",
          "name": "sender",
          "type": "address"
        }
      ],
      "name": "ERC721InvalidSender",
      "type": "error"
    },
    {
      "inputs": [
        {
          "internalType": "uint256",
          "name": "tokenId",
          "type": "uint256"
        }
      ],
      "name": "ERC721NonexistentToken",
      "type": "error"
    },
    {
      "inputs": [],
      "name": "FailedCall",
      "type": "error"
    },
    {
      "inputs": [
        {
          "internalType": "uint256",
          "name": "balance",
          "type": "uint256"
        },
        {
          "internalType": "uint256",
          "name": "needed",
          "type": "uint256"
        }
      ],
      "name": "InsufficientBalance",
      "type": "error"
    },
    {
      "inputs": [
        {
          "internalType": "address",
          "name": "owner",
          "type": "address"
        }
      ],
      "name": "OwnableInvalidOwner",
      "type": "error"
    },
    {
      "inputs": [
        {
          "internalType": "address",
          "name": "account",
          "type": "address"
        }
      ],
      "name": "OwnableUnauthorizedAccount",
      "type": "error"
    },
    {
      "inputs": [],
      "name": "ReentrancyGuardReentrantCall",
      "type": "error"
    },
    {
      "inputs": [
        {
          "internalType": "address",
          "name": "token",
          "type": "address"
        }
      ],
      "name": "SafeERC20FailedOperation",
      "type": "error"
    },
    {
      "anonymous": false,
      "inputs": [
        {
          "indexed": true,
          "internalType": "address",
          "name": "owner",
          "type": "address"
        },
        {
          "indexed": true,
          "internalType": "address",
          "name": "approved",
          "type": "address"
        },
        {
          "indexed": true,
          "internalType": "uint256",
          "name": "tokenId",
          "type": "uint256"
        }
      ],
      "name": "Approval",
      "type": "event"
    },
    {
      "anonymous": false,
      "inputs": [
        {
          "indexed": true,
          "internalType": "address",
          "name": "owner",
          "type": "address"
        },
        {
          "indexed": true,
          "internalType": "address",
          "name": "operator",
          "type": "address"
        },
        {
          "indexed": false,
          "internalType": "bool",
          "name": "approved",
          "type": "bool"
        }
      ],
      "name": "ApprovalForAll",
      "type": "event"
    },
    {
      "anonymous": false,
      "inputs": [
        {
          "indexed": true,
          "internalType": "address",
          "name": "gallery",
          "type": "address"
        }
      ],
      "name": "GallerySet",
      "type": "event"
    },
    {
      "anonymous": false,
      "inputs": [
        {
          "indexed": true,
          "internalType": "address",
          "name": "to",
          "type": "address"
        },
        {
          "indexed": false,
          "internalType": "uint256",
          "name": "tokenId",
          "type": "uint256"
        },
        {
          "indexed": false,
          "internalType": "string",
          "name": "paymentId",
          "type": "string"
        }
      ],
      "name": "MintedFor",
      "type": "event"
    },
    {
      "anonymous": false,
      "inputs": [
        {
          "indexed": true,
          "internalType": "address",
          "name": "previousOwner",
          "type": "address"
        },
        {
          "indexed": true,
          "internalType": "address",
          "name": "newOwner",
          "type": "address"
        }
      ],
      "name": "OwnershipTransferred",
      "type": "event"
    },
    {
      "anonymous": false,
      "inputs": [
        {
          "indexed": false,
          "internalType": "uint256",
          "name": "price",
          "type": "uint256"
        }
      ],
      "name": "PriceUSDCSet",
      "type": "event"
    },
    {
      "anonymous": false,
      "inputs": [
        {
          "indexed": true,
          "internalType": "address",
          "name": "relayer",
          "type": "address"
        }
      ],
      "name": "RelayerSet",
      "type": "event"
    },
    {
      "anonymous": false,
      "inputs": [
        {
          "indexed": true,
          "internalType": "address",
          "name": "from",
          "type": "address"
        },
        {
          "indexed": true,
          "internalType": "address",
          "name": "to",
          "type": "address"
        },
        {
          "indexed": true,
          "internalType": "uint256",
          "name": "tokenId",
          "type": "uint256"
        }
      ],
      "name": "Transfer",
      "type": "event"
    },
    {
      "anonymous": false,
      "inputs": [
        {
          "indexed": true,
          "internalType": "address",
          "name": "to",
          "type": "address"
        },
        {
          "indexed": false,
          "internalType": "uint256",
          "name": "amount",
          "type": "uint256"
        }
      ],
      "name": "WithdrawnETH",
      "type": "event"
    },
    {
      "inputs": [],
      "name": "MINT_PRICE",
      "outputs": [
        {
          "internalType": "uint256",
          "name": "",
          "type": "uint256"
        }
      ],
      "stateMutability": "view",
      "type": "function"
    },
    {
      "inputs": [],
      "name": "PAYEE1_AMOUNT",
      "outputs": [
        {
          "internalType": "uint256",
          "name": "",
          "type": "uint256"
        }
      ],
      "stateMutability": "view",
      "type": "function"
    },
    {
      "inputs": [],
      "name": "PAYEE2_AMOUNT",
      "outputs": [
        {
          "internalType": "uint256",
          "name": "",
          "type": "uint256"
        }
      ],
      "stateMutability": "view",
      "type": "function"
    },
    {
      "inputs": [
        {
          "internalType": "address",
          "name": "to",
          "type": "address"
        },
        {
          "internalType": "uint256",
          "name": "tokenId",
          "type": "uint256"
        }
      ],
      "name": "approve",
      "outputs": [],
      "stateMutability": "nonpayable",
      "type": "function"
    },
    {
      "inputs": [
        {
          "internalType": "address",
          "name": "owner",
          "type": "address"
        }
      ],
      "name": "balanceOf",
      "outputs": [
        {
          "internalType": "uint256",
          "name": "",
          "type": "uint256"
        }
      ],
      "stateMutability": "view",
      "type": "function"
    },
    {
      "inputs": [],
      "name": "gallery",
      "outputs": [
        {
          "internalType": "address",
          "name": "",
          "type": "address"
        }
      ],
      "stateMutability": "view",
      "type": "function"
    },
    {
      "inputs": [
        {
          "internalType": "uint256",
          "name": "tokenId",
          "type": "uint256"
        }
      ],
      "name": "getApproved",
      "outputs": [
        {
          "internalType": "address",
          "name": "",
          "type": "address"
        }
      ],
      "stateMutability": "view",
      "type": "function"
    },
    {
      "inputs": [
        {
          "internalType": "address",
          "name": "owner",
          "type": "address"
        },
        {
          "internalType": "address",
          "name": "operator",
          "type": "address"
        }
      ],
      "name": "isApprovedForAll",
      "outputs": [
        {
          "internalType": "bool",
          "name": "",
          "type": "bool"
        }
      ],
      "stateMutability": "view",
      "type": "function"
    },
    {
      "inputs": [],
      "name": "mint",
      "outputs": [],
      "stateMutability": "payable",
      "type": "function"
    },
    {
      "inputs": [
        {
          "internalType": "address",
          "name": "to",
          "type": "address"
        },
        {
          "internalType": "string",
          "name": "paymentId",
          "type": "string"
        }
      ],
      "name": "mintFor",
      "outputs": [],
      "stateMutability": "nonpayable",
      "type": "function"
    },
    {
      "inputs": [
        {
          "internalType": "address",
          "name": "to",
          "type": "address"
        },
        {
          "internalType": "string",
          "name": "paymentId",
          "type": "string"
        }
      ],
      "name": "mintForWithEth",
      "outputs": [],
      "stateMutability": "payable",
      "type": "function"
    },
    {
      "inputs": [
        {
          "internalType": "address",
          "name": "to",
          "type": "address"
        },
        {
          "internalType": "string",
          "name": "paymentId",
          "type": "string"
        }
      ],
      "name": "mintForWithEthFromGallery",
      "outputs": [],
      "stateMutability": "payable",
      "type": "function"
    },
    {
      "inputs": [],
      "name": "name",
      "outputs": [
        {
          "internalType": "string",
          "name": "",
          "type": "string"
        }
      ],
      "stateMutability": "view",
      "type": "function"
    },
    {
      "inputs": [],
      "name": "owner",
      "outputs": [
        {
          "internalType": "address",
          "name": "",
          "type": "address"
        }
      ],
      "stateMutability": "view",
      "type": "function"
    },
    {
      "inputs": [
        {
          "internalType": "uint256",
          "name": "tokenId",
          "type": "uint256"
        }
      ],
      "name": "ownerOf",
      "outputs": [
        {
          "internalType": "address",
          "name": "",
          "type": "address"
        }
      ],
      "stateMutability": "view",
      "type": "function"
    },
    {
      "inputs": [],
      "name": "payee1",
      "outputs": [
        {
          "internalType": "address payable",
          "name": "",
          "type": "address"
        }
      ],
      "stateMutability": "view",
      "type": "function"
    },
    {
      "inputs": [],
      "name": "payee2",
      "outputs": [
        {
          "internalType": "address payable",
          "name": "",
          "type": "address"
        }
      ],
      "stateMutability": "view",
      "type": "function"
    },
    {
      "inputs": [
        {
          "internalType": "address",
          "name": "",
          "type": "address"
        }
      ],
      "name": "pendingWithdrawals",
      "outputs": [
        {
          "internalType": "uint256",
          "name": "",
          "type": "uint256"
        }
      ],
      "stateMutability": "view",
      "type": "function"
    },
    {
      "inputs": [],
      "name": "priceUSDC",
      "outputs": [
        {
          "internalType": "uint256",
          "name": "",
          "type": "uint256"
        }
      ],
      "stateMutability": "view",
      "type": "function"
    },
    {
      "inputs": [
        {
          "internalType": "string",
          "name": "",
          "type": "string"
        }
      ],
      "name": "processedPayment",
      "outputs": [
        {
          "internalType": "bool",
          "name": "",
          "type": "bool"
        }
      ],
      "stateMutability": "view",
      "type": "function"
    },
    {
      "inputs": [],
      "name": "relayer",
      "outputs": [
        {
          "internalType": "address",
          "name": "",
          "type": "address"
        }
      ],
      "stateMutability": "view",
      "type": "function"
    },
    {
      "inputs": [],
      "name": "renounceOwnership",
      "outputs": [],
      "stateMutability": "nonpayable",
      "type": "function"
    },
    {
      "inputs": [
        {
          "internalType": "address",
          "name": "from",
          "type": "address"
        },
        {
          "internalType": "address",
          "name": "to",
          "type": "address"
        },
        {
          "internalType": "uint256",
          "name": "tokenId",
          "type": "uint256"
        }
      ],
      "name": "safeTransferFrom",
      "outputs": [],
      "stateMutability": "nonpayable",
      "type": "function"
    },
    {
      "inputs": [
        {
          "internalType": "address",
          "name": "from",
          "type": "address"
        },
        {
          "internalType": "address",
          "name": "to",
          "type": "address"
        },
        {
          "internalType": "uint256",
          "name": "tokenId",
          "type": "uint256"
        },
        {
          "internalType": "bytes",
          "name": "data",
          "type": "bytes"
        }
      ],
      "name": "safeTransferFrom",
      "outputs": [],
      "stateMutability": "nonpayable",
      "type": "function"
    },
    {
      "inputs": [
        {
          "internalType": "address",
          "name": "operator",
          "type": "address"
        },
        {
          "internalType": "bool",
          "name": "approved",
          "type": "bool"
        }
      ],
      "name": "setApprovalForAll",
      "outputs": [],
      "stateMutability": "nonpayable",
      "type": "function"
    },
    {
      "inputs": [
        {
          "internalType": "address",
          "name": "_g",
          "type": "address"
        }
      ],
      "name": "setGallery",
      "outputs": [],
      "stateMutability": "nonpayable",
      "type": "function"
    },
    {
      "inputs": [
        {
          "internalType": "address",
          "name": "_p1",
          "type": "address"
        },
        {
          "internalType": "address",
          "name": "_p2",
          "type": "address"
        }
      ],
      "name": "setPayees",
      "outputs": [],
      "stateMutability": "nonpayable",
      "type": "function"
    },
    {
      "inputs": [
        {
          "internalType": "uint256",
          "name": "_price",
          "type": "uint256"
        }
      ],
      "name": "setPriceUSDC",
      "outputs": [],
      "stateMutability": "nonpayable",
      "type": "function"
    },
    {
      "inputs": [
        {
          "internalType": "address",
          "name": "_r",
          "type": "address"
        }
      ],
      "name": "setRelayer",
      "outputs": [],
      "stateMutability": "nonpayable",
      "type": "function"
    },
    {
      "inputs": [
        {
          "internalType": "bytes4",
          "name": "interfaceId",
          "type": "bytes4"
        }
      ],
      "name": "supportsInterface",
      "outputs": [
        {
          "internalType": "bool",
          "name": "",
          "type": "bool"
        }
      ],
      "stateMutability": "view",
      "type": "function"
    },
    {
      "inputs": [],
      "name": "symbol",
      "outputs": [
        {
          "internalType": "string",
          "name": "",
          "type": "string"
        }
      ],
      "stateMutability": "view",
      "type": "function"
    },
    {
      "inputs": [
        {
          "internalType": "uint256",
          "name": "tokenId",
          "type": "uint256"
        }
      ],
      "name": "tokenURI",
      "outputs": [
        {
          "internalType": "string",
          "name": "",
          "type": "string"
        }
      ],
      "stateMutability": "view",
      "type": "function"
    },
    {
      "inputs": [
        {
          "internalType": "address",
          "name": "from",
          "type": "address"
        },
        {
          "internalType": "address",
          "name": "to",
          "type": "address"
        },
        {
          "internalType": "uint256",
          "name": "tokenId",
          "type": "uint256"
        }
      ],
      "name": "transferFrom",
      "outputs": [],
      "stateMutability": "nonpayable",
      "type": "function"
    },
    {
      "inputs": [
        {
          "internalType": "address",
          "name": "newOwner",
          "type": "address"
        }
      ],
      "name": "transferOwnership",
      "outputs": [],
      "stateMutability": "nonpayable",
      "type": "function"
    },
    {
      "inputs": [],
      "name": "usdc",
      "outputs": [
        {
          "internalType": "contract IERC20",
          "name": "",
          "type": "address"
        }
      ],
      "stateMutability": "view",
      "type": "function"
    },
    {
      "inputs": [],
      "name": "withdrawPending",
      "outputs": [],
      "stateMutability": "nonpayable",
      "type": "function"
    },
    {
      "inputs": [
        {
          "internalType": "address",
          "name": "to",
          "type": "address"
        },
        {
          "internalType": "uint256",
          "name": "amount",
          "type": "uint256"
        }
      ],
      "name": "withdrawUSDC",
      "outputs": [],
      "stateMutability": "nonpayable",
      "type": "function"
    }
  ],
  "bytecode": "0x60a06040526001600b5534801562000015575f80fd5b50604051620026993803806200269983398101604081905262000038916200016f565b336040518060400160405280600481526020016326b332b960e11b8152506040518060400160405280600481526020016326a322a960e11b815250815f908162000083919062000248565b50600162000092828262000248565b5050506001600160a01b038116620000c357604051631e4fbdf760e01b81525f600482015260240160405180910390fd5b620000ce816200011e565b5060016007556001600160a01b0382166080526008819055660110d9316ec0006200010665763bfbd22000659a9d359ca00062000310565b1462000116576200011662000336565b50506200034a565b600680546001600160a01b038381166001600160a01b0319831681179093556040519116919082907f8be0079c531659141344cd1fd0a4f28419497f9722a3daafe3b4186f6b6457e0905f90a35050565b5f806040838503121562000181575f80fd5b82516001600160a01b038116811462000198575f80fd5b6020939093015192949293505050565b634e487b7160e01b5f52604160045260245ffd5b600181811c90821680620001d157607f821691505b602082108103620001f057634e487b7160e01b5f52602260045260245ffd5b50919050565b601f82111562000243575f81815260208120601f850160051c810160208610156200021e5750805b601f850160051c820191505b818110156200023f578281556001016200022a565b5050505b505050565b81516001600160401b03811115620002645762000264620001a8565b6200027c81620002758454620001bc565b84620001f6565b602080601f831160018114620002b2575f84156200029a5750858301515b5f19600386901b1c1916600185901b1785556200023f565b5f85815260208120601f198616915b82811015620002e257888601518255948401946001909101908401620002c1565b50858210156200030057878501515f19600388901b60f8161c191681555b5050505050600190811b01905550565b808201808211156200033057634e487b7160e01b5f52601160045260245ffd5b92915050565b634e487b7160e01b5f52600160045260245ffd5b608051612321620003785f395f818161036001528181610aa601528181610b660152610c3801526123215ff3fe608060405260043610610212575f3560e01c806366100de21161011e578063a22cb465116100a8578063e985e9c51161006d578063e985e9c5146105f7578063eaa6074214610616578063f2fde38b14610635578063f3f4370314610654578063ffd69c0e1461067f575f80fd5b8063a22cb4651461056d578063a4d848081461058c578063b88d4fde1461059f578063c002d23d146105be578063c87b56dd146105d8575f80fd5b80637edbceb1116100ee5780637edbceb1146104f45780638406c079146105085780638da5cb5b1461052757806395d89b4114610544578063998ef38614610558575f80fd5b806366100de21461048f57806370a08231146104a2578063715018a6146104c1578063784c10bb146104d5575f80fd5b80633e413bee1161019f5780634ed6a5f71161016f5780634ed6a5f7146103d9578063623e752b146103f85780636352211e14610432578063651dd5d7146104515780636548e9bc14610470575f80fd5b80633e413bee1461034f57806342842e0e1461038257806344471fd9146103a15780634af044aa146103c0575f80fd5b8063095ea7b3116101e5578063095ea7b3146102c35780631249c58b146102e25780631ec7605c146102ea57806323b872dd1461031157806333cd6f5d14610330575f80fd5b806301ffc9a71461021657806306fdde031461024a578063081812fc1461026b57806308c687b9146102a2575b5f80fd5b348015610221575f80fd5b50610235610230366004611dd7565b61069e565b60405190151581526020015b60405180910390f35b348015610255575f80fd5b5061025e6106ef565b6040516102419190611e3f565b348015610276575f80fd5b5061028a610285366004611e51565b61077e565b6040516001600160a01b039091168152602001610241565b3480156102ad575f80fd5b506102c16102bc366004611e83565b6107a5565b005b3480156102ce575f80fd5b506102c16102dd366004611e9c565b610843565b6102c1610852565b3480156102f5575f80fd5b50610303659a9d359ca00081565b604051908152602001610241565b34801561031c575f80fd5b506102c161032b366004611ec4565b610994565b34801561033b575f80fd5b50600a5461028a906001600160a01b031681565b34801561035a575f80fd5b5061028a7f000000000000000000000000000000000000000000000000000000000000000081565b34801561038d575f80fd5b506102c161039c366004611ec4565b610a1d565b3480156103ac575f80fd5b506102c16103bb366004611e9c565b610a3c565b3480156103cb575f80fd5b5061030365763bfbd2200081565b3480156103e4575f80fd5b506102c16103f3366004611efd565b610b97565b348015610403575f80fd5b50610235610412366004612000565b8051602081830181018051600f8252928201919093012091525460ff1681565b34801561043d575f80fd5b5061028a61044c366004611e51565b610d9b565b34801561045c575f80fd5b506102c161046b366004612045565b610da5565b34801561047b575f80fd5b506102c161048a366004611e83565b610e38565b6102c161049d366004611efd565b610ed1565b3480156104ad575f80fd5b506103036104bc366004611e83565b6110b1565b3480156104cc575f80fd5b506102c16110f6565b3480156104e0575f80fd5b506102c16104ef366004611e51565b611107565b3480156104ff575f80fd5b506102c161114a565b348015610513575f80fd5b5060095461028a906001600160a01b031681565b348015610532575f80fd5b506006546001600160a01b031661028a565b34801561054f575f80fd5b5061025e6111f2565b348015610563575f80fd5b5061030360085481565b348015610578575f80fd5b506102c1610587366004612076565b611201565b6102c161059a366004611efd565b61120c565b3480156105aa575f80fd5b506102c16105b93660046120af565b6113f4565b3480156105c9575f80fd5b50610303660110d9316ec00081565b3480156105e3575f80fd5b5061025e6105f2366004611e51565b61140c565b348015610602575f80fd5b50610235610611366004612045565b61147d565b348015610621575f80fd5b50600d5461028a906001600160a01b031681565b348015610640575f80fd5b506102c161064f366004611e83565b6114aa565b34801561065f575f80fd5b5061030361066e366004611e83565b600e6020525f908152604090205481565b34801561068a575f80fd5b50600c5461028a906001600160a01b031681565b5f6001600160e01b031982166380ac58cd60e01b14806106ce57506001600160e01b03198216635b5e139f60e01b145b806106e957506301ffc9a760e01b6001600160e01b03198316145b92915050565b60605f80546106fd90612126565b80601f016020809104026020016040519081016040528092919081815260200182805461072990612126565b80156107745780601f1061074b57610100808354040283529160200191610774565b820191905f5260205f20905b81548152906001019060200180831161075757829003601f168201915b5050505050905090565b5f610788826114e7565b505f828152600460205260409020546001600160a01b03166106e9565b6107ad61151f565b6001600160a01b0381166107fa5760405162461bcd60e51b815260206004820152600f60248201526e696e76616c69642067616c6c65727960881b60448201526064015b60405180910390fd5b600a80546001600160a01b0319166001600160a01b0383169081179091556040517fedfbfd0e18dd640d8a0da730042583c8c1cdcb51d858709018c1e0b60d94ff0b905f90a250565b61084e82823361154c565b5050565b61085a611559565b660110d9316ec00034146108a15760405162461bcd60e51b815260206004820152600e60248201526d0a0e4d2c6ca40dad2e6dac2e8c6d60931b60448201526064016107f1565b600c546001600160a01b0316158015906108c55750600d546001600160a01b031615155b6109025760405162461bcd60e51b815260206004820152600e60248201526d14185e59595cc81b9bdd081cd95d60921b60448201526064016107f1565b600b80545f918261091283612172565b9190505590506109223382611583565b600c546001600160a01b03165f908152600e602052604081208054659a9d359ca000929061095190849061218a565b9091555050600d546001600160a01b03165f908152600e60205260408120805465763bfbd22000929061098590849061218a565b9091555050600160075550565b565b6001600160a01b0382166109bd57604051633250574960e11b81525f60048201526024016107f1565b5f6109c983833361159c565b9050836001600160a01b0316816001600160a01b031614610a17576040516364283d7b60e01b81526001600160a01b03808616600483015260248201849052821660448201526064016107f1565b50505050565b610a3783838360405180602001604052805f8152506113f4565b505050565b610a4461151f565b610a4c611559565b6001600160a01b038216610a8f5760405162461bcd60e51b815260206004820152600a602482015269696e76616c696420746f60b01b60448201526064016107f1565b6040516370a0823160e01b815230600482015281907f00000000000000000000000000000000000000000000000000000000000000006001600160a01b0316906370a0823190602401602060405180830381865afa158015610af3573d5f803e3d5ffd5b505050506040513d601f19601f82011682018060405250810190610b17919061219d565b1015610b595760405162461bcd60e51b8152602060048201526011602482015270496e73756666696369656e74205553444360781b60448201526064016107f1565b610b8d6001600160a01b037f000000000000000000000000000000000000000000000000000000000000000016838361168e565b61084e6001600755565b6009546001600160a01b0316331480610bba5750600a546001600160a01b031633145b610bd65760405162461bcd60e51b81526004016107f1906121b4565b610bde611559565b600f8282604051610bf09291906121eb565b9081526040519081900360200190205460ff1615610c205760405162461bcd60e51b81526004016107f1906121fa565b6008546040516370a0823160e01b81523060048201527f00000000000000000000000000000000000000000000000000000000000000006001600160a01b0316906370a0823190602401602060405180830381865afa158015610c85573d5f803e3d5ffd5b505050506040513d601f19601f82011682018060405250810190610ca9919061219d565b1015610cf75760405162461bcd60e51b815260206004820152601d60248201527f496e73756666696369656e742055534443206f6e20636f6e747261637400000060448201526064016107f1565b6001600f8383604051610d0b9291906121eb565b908152604051908190036020019020805491151560ff19909216919091179055600b80545f9182610d3b83612172565b919050559050610d4b8482611583565b836001600160a01b03167f22a185a146f147616353e1d15e984bcb1c37c1c1a349dcd49f211ffb7ed51f62828585604051610d8893929190612231565b60405180910390a250610a376001600755565b5f6106e9826114e7565b610dad61151f565b6001600160a01b03821615801590610dcd57506001600160a01b03811615155b610e0a5760405162461bcd60e51b815260206004820152600e60248201526d696e76616c69642070617965657360901b60448201526064016107f1565b600c80546001600160a01b039384166001600160a01b031991821617909155600d8054929093169116179055565b610e4061151f565b6001600160a01b038116610e885760405162461bcd60e51b815260206004820152600f60248201526e34b73b30b634b2103932b630bcb2b960891b60448201526064016107f1565b600980546001600160a01b0319166001600160a01b0383169081179091556040517fb7041340e0c2a075059bf0488a71c767724be15dae8e737f8460007325e8d857905f90a250565b6009546001600160a01b0316331480610ef45750600a546001600160a01b031633145b610f105760405162461bcd60e51b81526004016107f1906121b4565b610f18611559565b600f8282604051610f2a9291906121eb565b9081526040519081900360200190205460ff1615610f5a5760405162461bcd60e51b81526004016107f1906121fa565b659a9d359ca0003414610fa75760405162461bcd60e51b8152602060048201526015602482015274082e4e8d2e6e840e6d0c2e4ca40dad2e6dac2e8c6d605b1b60448201526064016107f1565b600c546001600160a01b0316610ff05760405162461bcd60e51b815260206004820152600e60248201526d14185e59594c481b9bdd081cd95d60921b60448201526064016107f1565b6001600f83836040516110049291906121eb565b908152604051908190036020019020805491151560ff19909216919091179055600b80545f918261103483612172565b9190505590506110448482611583565b600c546001600160a01b03165f908152600e60205260408120805434929061106d90849061218a565b92505081905550836001600160a01b03167f22a185a146f147616353e1d15e984bcb1c37c1c1a349dcd49f211ffb7ed51f62828585604051610d8893929190612231565b5f6001600160a01b0382166110db576040516322718ad960e21b81525f60048201526024016107f1565b506001600160a01b03165f9081526003602052604090205490565b6110fe61151f565b6109925f6116e0565b61110f61151f565b60088190556040518181527f168d423b1d45223210e058d0d41b93cd8bc934222f0b12acd9830687274e33ae9060200160405180910390a150565b611152611559565b335f908152600e6020526040902054806111995760405162461bcd60e51b81526020600482015260086024820152676e6f2066756e647360c01b60448201526064016107f1565b335f818152600e60205260408120556111b29082611731565b60405181815233907f5817fe91d2748c33f168d8a78037fc073adaf6ec8e3613a758d44a2cfae4563d9060200160405180910390a2506109926001600755565b6060600180546106fd90612126565b61084e3383836117bd565b6009546001600160a01b031633148061122f5750600a546001600160a01b031633145b61124b5760405162461bcd60e51b81526004016107f1906121b4565b611253611559565b600f82826040516112659291906121eb565b9081526040519081900360200190205460ff16156112955760405162461bcd60e51b81526004016107f1906121fa565b660110d9316ec00034146112dc5760405162461bcd60e51b815260206004820152600e60248201526d0a0e4d2c6ca40dad2e6dac2e8c6d60931b60448201526064016107f1565b600c546001600160a01b0316158015906113005750600d546001600160a01b031615155b61133d5760405162461bcd60e51b815260206004820152600e60248201526d14185e59595cc81b9bdd081cd95d60921b60448201526064016107f1565b6001600f83836040516113519291906121eb565b908152604051908190036020019020805491151560ff19909216919091179055600b80545f918261138183612172565b9190505590506113918482611583565b600c546001600160a01b03165f908152600e602052604081208054659a9d359ca00092906113c090849061218a565b9091555050600d546001600160a01b03165f908152600e60205260408120805465763bfbd22000929061106d90849061218a565b6113ff848484610994565b610a17338585858561185b565b6060611417826114e7565b505f61142d60408051602081019091525f815290565b90505f81511161144b5760405180602001604052805f815250611476565b8061145584611983565b604051602001611466929190612266565b6040516020818303038152906040525b9392505050565b6001600160a01b039182165f90815260056020908152604080832093909416825291909152205460ff1690565b6114b261151f565b6001600160a01b0381166114db57604051631e4fbdf760e01b81525f60048201526024016107f1565b6114e4816116e0565b50565b5f818152600260205260408120546001600160a01b0316806106e957604051637e27328960e01b8152600481018490526024016107f1565b6006546001600160a01b031633146109925760405163118cdaa760e01b81523360048201526024016107f1565b610a378383836001611a13565b60026007540361157c57604051633ee5aeb560e01b815260040160405180910390fd5b6002600755565b61084e828260405180602001604052805f815250611b17565b5f828152600260205260408120546001600160a01b03908116908316156115c8576115c8818486611b2e565b6001600160a01b03811615611602576115e35f855f80611a13565b6001600160a01b0381165f90815260036020526040902080545f190190555b6001600160a01b03851615611630576001600160a01b0385165f908152600360205260409020805460010190555b5f8481526002602052604080822080546001600160a01b0319166001600160a01b0389811691821790925591518793918516917fddf252ad1be2c89b69c2b068fc378daa952ba7f163c4a11628f55a4df523b3ef91a4949350505050565b604080516001600160a01b038416602482015260448082018490528251808303909101815260649091019091526020810180516001600160e01b031663a9059cbb60e01b179052610a37908490611b92565b600680546001600160a01b038381166001600160a01b0319831681179093556040519116919082907f8be0079c531659141344cd1fd0a4f28419497f9722a3daafe3b4186f6b6457e0905f90a35050565b8047101561175b5760405163cf47918160e01b8152476004820152602481018290526044016107f1565b5f80836001600160a01b0316836040515f6040518083038185875af1925050503d805f81146117a5576040519150601f19603f3d011682016040523d82523d5f602084013e6117aa565b606091505b509150915081610a1757610a1781611bfe565b6001600160a01b0382166117ef57604051630b61174360e31b81526001600160a01b03831660048201526024016107f1565b6001600160a01b038381165f81815260056020908152604080832094871680845294825291829020805460ff191686151590811790915591519182527f17307eab39ab6107e8899845ad3d59bd9653f200f220920489ca2b5937696c31910160405180910390a3505050565b6001600160a01b0383163b1561197c57604051630a85bd0160e11b81526001600160a01b0384169063150b7a029061189d908890889087908790600401612294565b6020604051808303815f875af19250505080156118d7575060408051601f3d908101601f191682019092526118d4918101906122d0565b60015b61193e573d808015611904576040519150601f19603f3d011682016040523d82523d5f602084013e611909565b606091505b5080515f0361193657604051633250574960e11b81526001600160a01b03851660048201526024016107f1565b805160208201fd5b6001600160e01b03198116630a85bd0160e11b1461197a57604051633250574960e11b81526001600160a01b03851660048201526024016107f1565b505b5050505050565b60605f61198f83611c26565b60010190505f8167ffffffffffffffff8111156119ae576119ae611f79565b6040519080825280601f01601f1916602001820160405280156119d8576020820181803683370190505b5090508181016020015b5f19016f181899199a1a9b1b9c1cb0b131b232b360811b600a86061a8153600a85049450846119e257509392505050565b8080611a2757506001600160a01b03821615155b15611ae8575f611a36846114e7565b90506001600160a01b03831615801590611a625750826001600160a01b0316816001600160a01b031614155b8015611a755750611a73818461147d565b155b15611a9e5760405163a9fbf51f60e01b81526001600160a01b03841660048201526024016107f1565b8115611ae65783856001600160a01b0316826001600160a01b03167f8c5be1e5ebec7d5bd14f71427d1e84f3dd0314c0f7b2291e5b200ac8c7c3b92560405160405180910390a45b505b50505f90815260046020526040902080546001600160a01b0319166001600160a01b0392909216919091179055565b611b218383611cfd565b610a37335f85858561185b565b611b39838383611d5e565b610a37576001600160a01b038316611b6757604051637e27328960e01b8152600481018290526024016107f1565b60405163177e802f60e01b81526001600160a01b0383166004820152602481018290526044016107f1565b5f8060205f8451602086015f885af180611bb1576040513d5f823e3d81fd5b50505f513d91508115611bc8578060011415611bd5565b6001600160a01b0384163b155b15610a1757604051635274afe760e01b81526001600160a01b03851660048201526024016107f1565b805115611c0d57805160208201fd5b60405163d6bda27560e01b815260040160405180910390fd5b5f8072184f03e93ff9f4daa797ed6e38ed64bf6a1f0160401b8310611c645772184f03e93ff9f4daa797ed6e38ed64bf6a1f0160401b830492506040015b6d04ee2d6d415b85acef81000000008310611c90576d04ee2d6d415b85acef8100000000830492506020015b662386f26fc100008310611cae57662386f26fc10000830492506010015b6305f5e1008310611cc6576305f5e100830492506008015b6127108310611cda57612710830492506004015b60648310611cec576064830492506002015b600a83106106e95760010192915050565b6001600160a01b038216611d2657604051633250574960e11b81525f60048201526024016107f1565b5f611d3283835f61159c565b90506001600160a01b03811615610a37576040516339e3563760e11b81525f60048201526024016107f1565b5f6001600160a01b03831615801590611dba5750826001600160a01b0316846001600160a01b03161480611d975750611d97848461147d565b80611dba57505f828152600460205260409020546001600160a01b038481169116145b949350505050565b6001600160e01b0319811681146114e4575f80fd5b5f60208284031215611de7575f80fd5b813561147681611dc2565b5f5b83811015611e0c578181015183820152602001611df4565b50505f910152565b5f8151808452611e2b816020860160208601611df2565b601f01601f19169290920160200192915050565b602081525f6114766020830184611e14565b5f60208284031215611e61575f80fd5b5035919050565b80356001600160a01b0381168114611e7e575f80fd5b919050565b5f60208284031215611e93575f80fd5b61147682611e68565b5f8060408385031215611ead575f80fd5b611eb683611e68565b946020939093013593505050565b5f805f60608486031215611ed6575f80fd5b611edf84611e68565b9250611eed60208501611e68565b9150604084013590509250925092565b5f805f60408486031215611f0f575f80fd5b611f1884611e68565b9250602084013567ffffffffffffffff80821115611f34575f80fd5b818601915086601f830112611f47575f80fd5b813581811115611f55575f80fd5b876020828501011115611f66575f80fd5b6020830194508093505050509250925092565b634e487b7160e01b5f52604160045260245ffd5b5f67ffffffffffffffff80841115611fa757611fa7611f79565b604051601f8501601f19908116603f01168101908282118183101715611fcf57611fcf611f79565b81604052809350858152868686011115611fe7575f80fd5b858560208301375f602087830101525050509392505050565b5f60208284031215612010575f80fd5b813567ffffffffffffffff811115612026575f80fd5b8201601f81018413612036575f80fd5b611dba84823560208401611f8d565b5f8060408385031215612056575f80fd5b61205f83611e68565b915061206d60208401611e68565b90509250929050565b5f8060408385031215612087575f80fd5b61209083611e68565b9150602083013580151581146120a4575f80fd5b809150509250929050565b5f805f80608085870312156120c2575f80fd5b6120cb85611e68565b93506120d960208601611e68565b925060408501359150606085013567ffffffffffffffff8111156120fb575f80fd5b8501601f8101871361210b575f80fd5b61211a87823560208401611f8d565b91505092959194509250565b600181811c9082168061213a57607f821691505b60208210810361215857634e487b7160e01b5f52602260045260245ffd5b50919050565b634e487b7160e01b5f52601160045260245ffd5b5f600182016121835761218361215e565b5060010190565b808201808211156106e9576106e961215e565b5f602082840312156121ad575f80fd5b5051919050565b60208082526017908201527f4f6e6c792072656c61796572206f722067616c6c657279000000000000000000604082015260600190565b818382375f9101908152919050565b60208082526019908201527f5061796d656e7420616c72656164792070726f63657373656400000000000000604082015260600190565b83815260406020820152816040820152818360608301375f818301606090810191909152601f909201601f1916010192915050565b5f8351612277818460208801611df2565b83519083019061228b818360208801611df2565b01949350505050565b6001600160a01b03858116825284166020820152604081018390526080606082018190525f906122c690830184611e14565b9695505050505050565b5f602082840312156122e0575f80fd5b815161147681611dc256fea2646970667358221220acef3736520b42e77a00eb306827c188b9bcfa3f9e2497fc646f50d2a2361cf864736f6c63430008140033",
  "linkReferences": {},
  "deployedLinkReferences": {},
  "immutableReferences": {
    "7984": [
      {
        "length": 32,
        "start": 864
      },
      {
        "length": 32,
        "start": 2726
      },
      {
        "length": 32,
        "start": 2918
      },
      {
        "length": 32,
        "start": 3128
      }
    ]
  },
  "inputSourceName": "project/contracts/MferMint.sol",
  "buildInfoId": "solc-0_8_20-2772c6c79b215079e6ad411b2f161b1f8ef7758d"
}